:100000000C942A000C9447000C9447000C94470071
:100010000C9447000C9447000C9447000C94470044
:100020000C9447000C9447000C9447000C94470034
:100030000C9447000C94550C0C9447000C9447000A
:100040000C9447000C9447000C9447000C94470014
:100050000C94470011241FBECFE5D8E0DEBFCDBF12
:1000600014E0A0E6B0E0E2E8F4E402C005900D92EE
:10007000AE32B107D9F714E0AEE2B4E001C01D9290
:10008000A133B107E1F70E94061E0C943F220C94A5
:100090000000EF92FF920F931F937B018C0120E0F1
:1000A00030E040E05FE40E94490388238CF0C801FF
:1000B000B70120E030E040E05FE40E94C1010E940F
:1000C000A9039B01AC01205030404040504806C07D
:1000D000C801B7010E94A9039B01AC01B901CA0183
:1000E0001F910F91FF90EF900895A0E0B0E0EBE733
:1000F000F0E00C94FF21DC012B01FA019C9192307D
:1001000008F439C1EB018881823008F433C194309E
:1001100069F4843009F02FC111969C91119789815F
:10012000981709F428C1AEE0B4E025C1843009F481
:1001300021C18230A9F4923009F01DC19A01AD01AC
:1001400088E0EA010990AE01E90109929E0181501F
:10015000C1F7E201898111969C918923818308C1AD
:10016000923009F407C112962D903C901397EB0141
:100170008A819B811496AD90BD90CD90DC901797AD
:10018000EC80FD800E811F819101281B390BB90184
:1001900037FF04C066277727621B730B6032710537
:1001A0000CF061C0121613066CF537014801062EDB
:1001B00004C096948794779467940A94D2F721E0C8
:1001C00030E040E050E004C0220F331F441F551FB1
:1001D0006A95D2F721503040404050402E213F21B7
:1001E00040235123211531054105510521F021E01E
:1001F00030E040E050E079018A01E628F72808293C
:1002000019293CC0232BD1F1260E371E350146019A
:10021000062E04C096948794779467940A94D2F734
:1002200021E030E040E050E004C0220F331F441FC3
:10023000551F6A95D2F721503040404050402A2146
:100240003B214C215D21211531054105510521F04E
:1002500021E030E040E050E059016A01A628B728CB
:10026000C828D9280BC0821593052CF01C01AA249C
:10027000BB24650103C0EE24FF24870111969C91E5
:10028000D20111968C91981709F445C0992339F041
:10029000A80197012A193B094C095D0906C0A6016E
:1002A00095012E193F09400B510B57FD08C01182D3
:1002B0003382228224833583468357831DC081E0A5
:1002C00081833382228288279927DC01821B930B4A
:1002D000A40BB50B84839583A683B7830DC0220F2F
:1002E000331F441F551F24833583468357838281E0
:1002F000938101979383828324813581468157813D
:10030000DA01C9010197A109B1098F5F9F4FAF4F72
:10031000BF4328F30BC0918333822282EA0CFB1C7B
:100320000C1D1D1DE482F5820683178383E0808304
:10033000248135814681578157FF1AC0C901AA27F8
:1003400097FDA095BA2F81709070A070B0705695EF
:10035000479537952795822B932BA42BB52B848318
:100360009583A683B7838281938101969383828349
:10037000DF0101C0D201CD01CDB7DEB7E2E10C94BF
:100380001B22A0E2B0E0E7ECF1E00C940B226983C1
:100390007A838B839C832D833E834F835887E9E048
:1003A000EE2EF12CEC0EFD1ECE010196B7010E943F
:1003B000D2048E010F5E1F4FCE010596B8010E9438
:1003C000D2048A8991E089278A8BC701B801AE01DE
:1003D000475E5F4F0E9475000E94FD03A096E6E015
:1003E0000C942722A0E2B0E0E8EFF1E00C940B229D
:1003F00069837A838B839C832D833E834F835887C5
:10040000F9E0EF2EF12CEC0EFD1ECE010196B701A6
:100410000E94D2048E010F5E1F4FCE010596B801D7
:100420000E94D204C701B801AE01475E5F4F0E942F
:1004300075000E94FD03A096E6E00C942722A0E23E
:10044000B0E0E5E2F2E00C94FF2169837A838B83CC
:100450009C832D833E834F835887CE010196BE0136
:10046000675F7F4F0E94D204CE010596BE016F5E8A
:100470007F4F0E94D2049985923088F0898982301A
:10048000C8F0943019F4823051F404C0843029F457
:10049000923081F48EE094E0C6C0923049F420E0BE
:1004A0009A858A89981321E02A87CE010996BBC0D4
:1004B000823049F420E09A858A89981321E02A8BBA
:1004C000CE014196B0C02D843E844F8458886D88FB
:1004D0007E888F88988CEE24FF248701AA24BB2471
:1004E000650140E050E060E070E0E0E0F0E0C10174
:1004F00081709070892BE9F0E60CF71C081D191D1E
:100500009A01AB012A0D3B1D4C1D5D1D80E090E062
:10051000A0E0B0E0E614F7040805190520F481E036
:1005200090E0A0E0B0E0BA01A901480F591F6A1F8E
:100530007B1FAA0CBB1CCC1CDD1C97FE08C081E0F5
:1005400090E0A0E0B0E0A82AB92ACA2ADB2A3196B6
:10055000E032F10549F0660C771C881C991C569412
:10056000479437942794C3CFFA85EA892B893C892D
:100570008B859C85280F391F2E5F3F4F17C0CA01FE
:1005800081709070892B61F016950795F794E79428
:1005900080E090E0A0E0B0E8E82AF92A0A2B1B2BC3
:1005A00076956795579547952F5F3F4F77FDE7CF36
:1005B0000CC0440F551F661F771F17FD4160EE0CDE
:1005C000FF1C001F111F21503040403090E05907A0
:1005D00090E0690790E4790760F32B8F3C8FDB0193
:1005E000CA018F779070A070B07080349105A1051A
:1005F000B10561F447FD0AC0E114F10401051105DC
:1006000029F0405C5F4F6F4F7F4F40781A8EFE1786
:1006100011F081E08A8F4D8F5E8F6F8F78A383E01A
:10062000898FCE0149960E94FD03A096E2E10C94C9
:100630001B22A8E1B0E0EFE1F3E00C940B22698308
:100640007A838B839C832D833E834F83588789E0F5
:10065000E82EF12CEC0EFD1ECE010196B7010E9492
:10066000D2048E010F5E1F4FCE010596B8010E9485
:10067000D2048985823040F08989823028F0C70110
:10068000B8010E944A0501C08FEF6896E6E00C941D
:100690002722A8E1B0E0EFE4F3E00C940B22698399
:1006A0007A838B839C832D833E834F83588789E095
:1006B000E82EF12CEC0EFD1ECE010196B7010E9432
:1006C000D2048E010F5E1F4FCE010596B8010E9425
:1006D000D2048985823040F08989823028F0C701B0
:1006E000B8010E944A0501C08FEF6896E6E00C94BD
:1006F0002722A8E1B0E0EFE7F3E00C940B22698336
:100700007A838B839C832D833E834F83588789E034
:10071000E82EF12CEC0EFD1ECE010196B7010E94D1
:10072000D2048E010F5E1F4FCE010596B8010E94C4
:10073000D2048985823040F08989823028F0C7014F
:10074000B8010E944A0501C081E06896E6E00C9479
:100750002722ACE0B0E0EFEAF3E00C940F226983CB
:100760007A838B839C83CE010196BE016B5F7F4FA2
:100770000E94D2048D81823061F1823050F1843048
:1007800021F48E81882351F12EC02F81388537FDC9
:1007900020C06E812F3131051CF06623F9F023C093
:1007A0008EE190E0821B930B29853A854B855C8511
:1007B00004C056954795379527958A95D2F76623B5
:1007C000B1F050954095309521953F4F4F4F5F4F79
:1007D0000EC020E030E040E050E009C02FEF3FEFD6
:1007E0004FEF5FE704C020E030E040E050E8B9019F
:1007F000CA012C96E2E00C942B22DF92EF92FF923A
:100800000F931F93FC01E480F58006811781D1804E
:100810008081823048F480E090E0A0E1B0E0E82AF6
:10082000F92A0A2B1B2BA5C0843009F49FC0823003
:1008300021F4EE24FF24870105C0E114F104010531
:10084000110519F4E0E0F0E096C0628173819FEF3A
:10085000623879070CF05BC022E83FEF261B370BAC
:100860002A3131052CF020E030E040E050E02AC091
:10087000B801A701022E04C0769567955795479554
:100880000A94D2F781E090E0A0E0B0E004C0880FC5
:10089000991FAA1FBB1F2A95D2F70197A109B10979
:1008A0008E219F21A023B1230097A105B10521F03E
:1008B00081E090E0A0E0B0E09A01AB01282B392B59
:1008C0004A2B5B2BDA01C9018F779070A070B07052
:1008D00080349105A105B10539F427FF09C0205CDA
:1008E0003F4F4F4F5F4F04C0215C3F4F4F4F5F4F13
:1008F000E0E0F0E02030A0E03A07A0E04A07A0E402
:100900005A0710F0E1E0F0E079018A0127C0603871
:10091000710564F5FB01E158FF4FD801C7018F77DE
:100920009070A070B07080349105A105B10539F4C4
:10093000E7FE0DC080E490E0A0E0B0E004C08FE3EB
:1009400090E0A0E0B0E0E80EF91E0A1F1B1F17FFA1
:1009500005C016950795F794E794319687E01695AC
:100960000795F794E7948A95D1F705C0EE24FF2404
:100970008701EFEFF0E06E2F679566276795902F60
:100980009F77D794DD24D7948E2F8695492F462BB9
:10099000582F5D29B701CA011F910F91FF90EF9069
:1009A000DF900895FC01DB01408151812281622F9B
:1009B0006F7770E0221F2227221F9381892F880FD3
:1009C000822B282F30E0991F9927991F11969C930D
:1009D000119721153105A9F54115510561057105DD
:1009E00011F482E037C082E89FEF13969C938E93B8
:1009F00012979A01AB0167E0220F331F441F551F66
:100A00006A95D1F783E08C930DC0220F331F441FEA
:100A1000551F12968D919C911397019713969C9355
:100A20008E931297203080E0380780E0480780E4FA
:100A3000580758F314962D933D934D935C93179755
:100A400008952F3F310579F4411551056105710570
:100A500019F484E08C93089564FF03C081E08C93C3
:100A600012C01C9210C02F57304013963C932E9307
:100A7000129783E08C9387E0440F551F661F771F02
:100A80008A95D1F7706414964D935D936D937C9322
:100A9000179708951F93DC01FB019C91923008F495
:100AA00047C08081823008F443C0943051F41196DD
:100AB0001C91843099F58181682F70E0611B710968
:100AC0003FC0843021F0923031F48230B9F181811D
:100AD000882389F12DC011961C9111978230F1F075
:100AE00081811817D9F412962D913C911397828128
:100AF00093818217930794F028173907BCF0149656
:100B00008D919D910D90BC91A02D248135814681C0
:100B10005781281739074A075B0718F4112341F05A
:100B20000AC082179307A407B50740F4112319F0F0
:100B300061E070E005C06FEF7FEF02C060E070E041
:100B4000CB011F910895DF93CF9300D000D000D048
:100B5000CDB7DEB789836A838A81282F30E03E8350
:100B60002D838D819E818031910509F46BC02D818B
:100B70003E81213131058CF48D819E818430910537
:100B8000A9F12D813E812830310509F445C08D81C0
:100B90009E8182309105A1F0ACC02D813E81203430
:100BA000310509F47BC08D819E818038910509F45F
:100BB0008BC02D813E812032310509F459C099C086
:100BC000A6E2B0E0E6E2F0E0808181608C93A6E2EC
:100BD000B0E0E6E2F0E080818D7F8C93A6E2B0E0A9
:100BE000E6E2F0E080818B7F8C9383C0A6E2B0E0E8
:100BF000E6E2F0E080818E7F8C93A6E2B0E0E6E250
:100C0000F0E0808182608C93A6E2B0E0E6E2F0E062
:100C100080818B7F8C936DC0A6E2B0E0E6E2F0E0CD
:100C2000808181608C93A6E2B0E0E6E2F0E0808112
:100C300082608C93A6E2B0E0E6E2F0E080818B7FF8
:100C40008C9357C0A6E2B0E0E6E2F0E080818E7FB0
:100C50008C93A6E2B0E0E6E2F0E080818D7F8C9399
:100C6000A6E2B0E0E6E2F0E0808184608C9341C0CF
:100C7000A6E2B0E0E6E2F0E0808181608C93A6E23B
:100C8000B0E0E6E2F0E080818D7F8C93A6E2B0E0F8
:100C9000E6E2F0E0808184608C932BC0A6E2B0E0B5
:100CA000E6E2F0E080818E7F8C93A6E2B0E0E6E29F
:100CB000F0E0808182608C93A6E2B0E0E6E2F0E0B2
:100CC000808184608C9315C0A6E2B0E0E6E2F0E09B
:100CD000808181608C93A6E2B0E0E6E2F0E0808162
:100CE00082608C93A6E2B0E0E6E2F0E0808184606E
:100CF0008C938981282F30E03C832B838B819C81CE
:100D00008130910551F02B813C812230310519F160
:100D10008B819C81009781F02CC0A7E2B0E0E7E2D4
:100D2000F0E080818F7B8C93A7E2B0E0E7E2F0E017
:100D300080818F778C931DC0A7E2B0E0E7E2F0E0FE
:100D4000808180648C93A7E2B0E0E7E2F0E08081EC
:100D50008F778C930EC0A7E2B0E0E7E2F0E08081ED
:100D600080648C93A7E2B0E0E7E2F0E080818068E5
:100D70008C93A6E2B0E0E6E2F0E0808180688C939C
:100D800026960FB6F894DEBF0FBECDBFCF91DF9190
:100D90000895DF93CF93CDB7DEB7A6E2B0E0E6E2E9
:100DA000F0E0808180648C93CF91DF910895DF9390
:100DB000CF930F92CDB7DEB7898389818830D0F485
:100DC000A0E5B0E0E0E5F0E080818F718C93A0E5D4
:100DD000B0E0E0E5F0E08081282F8981882F90E065
:100DE000880F991F82959295907F9827807F9827EA
:100DF000822B8C93A6E2B0E0E6E2F0E08081806294
:100E00008C930F90CF91DF910895DF93CF930F9242
:100E1000CDB7DEB789838981803278F4A7E2B0E06C
:100E2000E7E2F0E08081807E8C93A7E2B0E0E7E229
:100E3000F0E090818981892B8C930F90CF91DF9185
:100E40000895DF93CF9300D000D0CDB7DEB78A836B
:100E50008A81282F30E03C832B838B819C810097F3
:100E6000F1F02B813C812130310521F5E4E2F0E005
:100E70008081869586958983E5E2F0E08081882FE0
:100E800090E000249695879507949695879507940A
:100E9000982F802D982F8981892B89830BC0A7E2F9
:100EA000B0E0E7E2F0E0808180628C93E5E2F0E080
:100EB0008081898389810F900F900F900F90CF913F
:100EC000DF910895DF93CF93CDB7DEB7E6E2F0E090
:100ED0008081882F90E082959295907F9827807FDF
:100EE0009827009799F3A6E2B0E0E6E2F0E080816F
:100EF00080618C93CF91DF910895DF93CF93CDB72D
:100F0000DEB7A6E2B0E0E6E2F0E0808188608C9394
:100F1000CF91DF910895DF93CF930F92CDB7DEB7D6
:100F20001982EAE3F0E081EB8083EBE3F0E086E115
:100F3000808389810F90CF91DF910895DF93CF93C4
:100F400000D000D000D0CDB7DEB78A836B834C834E
:100F500019828A81843008F0D1C08B81883008F0F2
:100F6000CDC08C81823008F0C9C08A81282F30E042
:100F70003E832D836D817E816130710509F441C00E
:100F80008D819E818230910534F42D813E81211521
:100F9000310571F0B0C06D817E816230710509F458
:100FA00059C08D819E818330910509F47CC0A3C016
:100FB000AAE3B0E0EAE3F0E08081482F8B81282F9C
:100FC00030E081E090E002C0880F991F2A95E2F797
:100FD000809584238C93AAE3B0E0EAE3F0E080817B
:100FE000482F8C81282F30E08B81882F90E0B90129
:100FF00002C0660F771F8A95E2F7CB01842B8C9392
:101000007AC0A7E3B0E0E7E3F0E08081482F8B816E
:10101000282F30E081E090E002C0880F991F2A95C8
:10102000E2F7809584238C93A7E3B0E0E7E3F0E058
:101030008081482F8C81282F30E08B81882F90E091
:10104000B90102C0660F771F8A95E2F7CB01842BA6
:101050008C9351C0A4E3B0E0E4E3F0E08081482F3A
:101060008B81282F30E081E090E002C0880F991F2B
:101070002A95E2F7809584238C93A4E3B0E0E4E31F
:10108000F0E08081482F8C81282F30E08B81882FE1
:1010900090E0B90102C0660F771F8A95E2F7CB0195
:1010A000842B8C9328C0A1E3B0E0E1E3F0E08081E1
:1010B000482F8B81282F30E081E090E002C0880F1C
:1010C000991F2A95E2F7809584238C93A1E3B0E0E1
:1010D000E1E3F0E08081482F8C81282F30E08B8184
:1010E000882F90E0B90102C0660F771F8A95E2F75A
:1010F000CB01842B8C9381E0898302C082E08983B9
:10110000898126960FB6F894DEBF0FBECDBFCF9172
:10111000DF910895DF93CF9300D000D000D0CDB7FA
:10112000DEB78A836B834C8319828A81843008F00E
:10113000D4C08B81883008F0D0C08C81823020F000
:101140008C81823008F0C9C08A81282F30E03E832C
:101150002D836D817E816130710509F441C08D81DF
:101160009E818230910534F42D813E812115310517
:1011700071F0B0C06D817E816230710509F459C093
:101180008D819E818330910509F47CC0A3C0ABE3BF
:10119000B0E0EBE3F0E08081482F8B81282F30E036
:1011A00081E090E002C0880F991F2A95E2F78095B0
:1011B00084238C93ABE3B0E0EBE3F0E08081482F35
:1011C0008C81282F30E08B81882F90E0B90102C0FC
:1011D000660F771F8A95E2F7CB01842B8C937AC038
:1011E000A8E3B0E0E8E3F0E08081482F8B81282F6E
:1011F00030E081E090E002C0880F991F2A95E2F765
:10120000809584238C93A8E3B0E0E8E3F0E080814C
:10121000482F8C81282F30E08B81882F90E0B901F6
:1012200002C0660F771F8A95E2F7CB01842B8C935F
:1012300051C0A5E3B0E0E5E3F0E08081482F8B8169
:10124000282F30E081E090E002C0880F991F2A9596
:10125000E2F7809584238C93A5E3B0E0E5E3F0E02A
:101260008081482F8C81282F30E08B81882F90E05F
:10127000B90102C0660F771F8A95E2F7CB01842B74
:101280008C9328C0A2E3B0E0E2E3F0E08081482F35
:101290008B81282F30E081E090E002C0880F991FF9
:1012A0002A95E2F7809584238C93A2E3B0E0E2E3F1
:1012B000F0E08081482F8C81282F30E08B81882FAF
:1012C00090E0B90102C0660F771F8A95E2F7CB0163
:1012D000842B8C9381E0898302C082E08983898199
:1012E00026960FB6F894DEBF0FBECDBFCF91DF912B
:1012F0000895DF93CF9300D000D00F92CDB7DEB723
:101300008A836B8319828A81843008F075C08B814F
:10131000883008F071C08A81282F30E03D832C830B
:101320008C819D818130910549F12C813D81223054
:1013300031052CF48C819D81009761F05AC02C817D
:101340003D812230310571F18C819D818330910581
:10135000E9F14FC0ABE3B0E0EBE3F0E08081482F70
:101360008B81282F30E081E090E0022E02C0880FB0
:10137000991F0A94E2F784278C933BC0A8E3B0E05E
:10138000E8E3F0E08081482F8B81282F30E081E076
:1013900090E0022E02C0880F991F0A94E2F784277A
:1013A0008C9327C0A5E3B0E0E5E3F0E08081482F0F
:1013B0008B81282F30E081E090E0022E02C0880F60
:1013C000991F0A94E2F784278C9313C0A2E3B0E03C
:1013D000E2E3F0E08081482F8B81282F30E081E02C
:1013E00090E0022E02C0880F991F0A94E2F784272A
:1013F0008C9381E0898302C082E0898389810F9088
:101400000F900F900F900F90CF91DF910895DF9381
:10141000CF93CDB7DEB727970FB6F894DEBF0FBED8
:10142000CDBF8A836B835D834C8319828C819D81C0
:10143000009709F47EC08A81843008F077C08B81E0
:10144000883008F073C08A81282F30E03F832E83D4
:101450004E815F814130510559F18E819F818230EB
:10146000910534F42E813F812115310569F05BC06F
:101470004E815F814230510579F18E819F818330A9
:10148000910509F43DC04FC0E9E3F0E08081282FC9
:1014900030E08B81882F90E0A90102C055954795D7
:1014A0008A95E2F7CA018170EC81FD8180833BC09F
:1014B000E6E3F0E08081282F30E08B81882F90E0F8
:1014C000A90102C0559547958A95E2F7CA01817036
:1014D000EC81FD81808327C0E3E3F0E08081282F49
:1014E00030E08B81882F90E0A90102C05595479587
:1014F0008A95E2F7CA018170EC81FD81808313C077
:10150000E0E3F0E08081282F30E08B81882F90E0AD
:10151000A90102C0559547958A95E2F7CA018170E5
:10152000EC81FD81808381E0898305C082E089832D
:1015300002C083E08983898127960FB6F894DEBFC5
:101540000FBECDBFCF91DF910895DF93CF93CDB77D
:10155000DEB7AFE5B0E0EFE5F0E0808180688C9326
:10156000CF91DF910895DF93CF93CDB7DEB7AFE58D
:10157000B0E0EFE5F0E080818F778C93CF91DF9141
:101580000895DF93CF930F92CDB7DEB71982E0E2D3
:10159000F0E088E48083A1E2B0E0E1E2F0E0808165
:1015A0008C7F8C93A2E2B0E0E2E2F0E080818E7F5B
:1015B0008C93E2E2F0E08AE08083A6E5B0E0E6E525
:1015C000F0E0808180688C93A6E5B0E0E6E5F0E08D
:1015D000808184608C9389810F90CF91DF910895F1
:1015E000DF93CF930F92CDB7DEB71982A6E5B0E0B7
:1015F000E6E5F0E0808180628C93A6E5B0E0E6E568
:10160000F0E0808180688C93E6E5F0E080818823BB
:10161000DCF7E1E2F0E08081882F90E0887F907035
:101620008830910511F481E0898389810F90CF91F1
:10163000DF910895DF93CF930F92CDB7DEB7198274
:10164000A6E5B0E0E6E5F0E0808180628C93A6E557
:10165000B0E0E6E5F0E0808180688C93E6E5F0E0BC
:1016600080818823DCF7E1E2F0E08081882F90E040
:10167000887F90708031910511F481E089838981A0
:101680000F90CF91DF910895DF93CF930F92CDB755
:10169000DEB71982A6E5B0E0E6E5F0E0808180687B
:1016A0008C93A6E5B0E0E6E5F0E0808180618C9364
:1016B00089810F90CF91DF910895DF93CF9300D070
:1016C0000F92CDB7DEB78A836B831982E3E2F0E035
:1016D0008A81882F90E0880F991F982F8B81892B02
:1016E0008083A6E5B0E0E6E5F0E080818F7D8C9315
:1016F000A6E5B0E0E6E5F0E0808180688C93E6E561
:10170000F0E080818823DCF7E1E2F0E08081882F3F
:1017100090E0887F90708831910531F48B81882327
:1017200019F481E089830FC0E1E2F0E08081882F25
:1017300090E0887F90708034910529F48B8181300E
:1017400011F481E0898389810F900F900F90CF91E0
:10175000DF910895DF93CF9300D0CDB7DEB78A83B2
:101760001982E3E2F0E08A818083A6E5B0E0E6E555
:10177000F0E0808180688C93E6E5F0E0808188234A
:10178000DCF7E1E2F0E08081882F90E0887F9070C4
:101790008832910511F481E0898389810F900F903F
:1017A000CF91DF910895DF93CF930F92CDB7DEB73E
:1017B0001982A6E5B0E0E6E5F0E0808180648C93D4
:1017C000A6E5B0E0E6E5F0E0808180688C93E6E590
:1017D000F0E080818823DCF7E1E2F0E08081882F6F
:1017E00090E0887F90708036910519F481E08983BC
:1017F0000CC0E1E2F0E08081882F90E0887F90705B
:10180000883A910511F481E0898389810F90CF9105
:10181000DF910895DF93CF9300D00F92CDB7DEB75D
:101820009B838A831982A6E5B0E0E6E5F0E080813B
:1018300080688C93E6E5F0E080818823DCF7E1E2C4
:10184000F0E08081882F90E0887F9070803591054E
:1018500051F0E1E2F0E08081882F90E0887F907085
:101860008835910549F4E3E2F0E08081EA81FB816B
:10187000808381E0898312C0E1E2F0E08081882FDB
:1018800090E0887F90708038910541F4E3E2F0E0C9
:101890008081EA81FB81808381E0898389810F9047
:1018A0000F900F90CF91DF9108951F920F920FB676
:1018B0000F9211242F933F934F935F936F937F93D6
:1018C0008F939F93AF93BF93EF93FF93DF93CF9348
:1018D000CDB7DEB780912E0490912F04009729F0A8
:1018E000E0912E04F0912F040995CF91DF91FF91A3
:1018F000EF91BF91AF919F918F917F916F915F9188
:101900004F913F912F910F900FBE0F901F90189500
:10191000DF93CF9300D0CDB7DEB79A8389838981D7
:101920009A81009731F089819A8190932F04809356
:101930002E040F900F90CF91DF910895DF93CF93F6
:10194000CDB7DEB7A3E5B0E0E3E5F0E080818860E5
:101950008C93A3E5B0E0E3E5F0E0808180648C93B4
:10196000CF91DF910895DF93CF93CDB7DEB7A3E595
:10197000B0E0E3E5F0E0808180628C93A3E5B0E025
:10198000E3E5F0E080818F7E8C93CF91DF91089525
:10199000DF93CF93CDB7DEB7A3E5B0E0E3E5F0E0AA
:1019A000808181608C93A3E5B0E0E3E5F0E0808185
:1019B00082608C93A3E5B0E0E3E5F0E080818B7F6B
:1019C0008C93CF91DF910895DF93CF930F92CDB792
:1019D000DEB78983ECE5F0E0898180830F90CF91B9
:1019E000DF910895DF93CF93CDB7DEB7ECE5F0E05C
:1019F0001082CF91DF910895DF93CF93CDB7DEB7FB
:101A0000ECE5F0E088EC8083CF91DF910895DF93DF
:101A1000CF93CDB7DEB7A9E5B0E0E9E5F0E080818E
:101A200081608C93CF91DF910895DF93CF930F92D4
:101A3000CDB7DEB78983ECE4F0E08981882F90E0B0
:101A4000918380830F90CF91DF910895DF93CF939F
:101A5000CDB7DEB7AFE4B0E0EFE4F0E080818061C5
:101A60008C93AFE4B0E0EFE4F0E0808180628C938F
:101A7000CF91DF910895DF93CF93CDB7DEB7AFE479
:101A8000B0E0EFE4F0E080818D7F8C93AFE4B0E0D4
:101A9000EFE4F0E0808181608C93AEE4B0E0EEE4AE
:101AA000F0E08081877F8C93AEE4B0E0EEE4F0E07C
:101AB000808180618C93CF91DF910895DF93CF93E4
:101AC000CDB7DEB7AFE4B0E0EFE4F0E080818F7E29
:101AD0008C93AFE4B0E0EFE4F0E0808180628C931F
:101AE000AEE4B0E0EEE4F0E080818F7B8C93AEE476
:101AF000B0E0EEE4F0E0808180688C93CF91DF91DC
:101B00000895DF93CF93CDB7DEB7AEE4B0E0EEE457
:101B1000F0E0808181608C93AEE4B0E0EEE4F0E030
:101B2000808182608C93AEE4B0E0EEE4F0E08081EE
:101B30008B7F8C93CF91DF910895DF93CF9300D06B
:101B4000CDB7DEB79A838983EBE4F0E089819A818F
:101B5000892F99278083EAE4F0E0898180830F90C0
:101B60000F90CF91DF910895DF93CF930F92CDB770
:101B7000DEB78983EAE4F0E0898180830F90CF911A
:101B8000DF910895DF93CF930F92CDB7DEB78983AE
:101B9000EBE4F0E0898180830F90CF91DF9108958D
:101BA000DF93CF93CDB7DEB7E9E4F0E01082E8E44D
:101BB000F0E08AEF8083CF91DF910895DF93CF9398
:101BC000CDB7DEB7E9E4F0E01082E8E4F0E08DE7BD
:101BD0008083CF91DF910895DF93CF93CDB7DEB7A8
:101BE000A1E3B0E0E1E3F0E080818F7E8C93CF91C0
:101BF000DF910895DF93CF93CDB7DEB72D970FB662
:101C0000F894DEBF0FBECDBF8A836B834C832D83D8
:101C100019828A81282F30E03D872C878C859D850D
:101C20008130910551F02C853D852230310561F0E0
:101C30008C859D850097B1F018C089818F7B898341
:101C400081E08093160411C089818F7B8983ABE288
:101C5000B0E0EBE2F0E0808182608C9382E08093E0
:101C6000160403C08981806489838B81282F30E02A
:101C70003B872A878A859B8581309105B9F02A8523
:101C80003B852230310559F08A859B850097A1F468
:101C900089818F7E898389818F7D89830DC0898128
:101CA0008F7E898389818062898306C08981806172
:101CB00089838981806289838C81282F30E03987EC
:101CC0002887888599858130910531F02885398567
:101CD0002230310529F007C08981877F898303C0BD
:101CE0008981886089838D81282F30E03F832E830E
:101CF0008E819F8187309105B9F12E813F812830F7
:101D000031055CF48E819F818530910589F02E81AB
:101D10003F8126303105D1F050C08E819F818830BF
:101D2000910581F12E813F8129303105C9F145C0EE
:101D300089818D7F898389818B7F8983AAE2B0E045
:101D4000EAE2F0E080818B7F8C9337C089818260EA
:101D5000898389818B7F8983AAE2B0E0EAE2F0E09F
:101D600080818B7F8C9329C089818D7F8983898134
:101D700084608983AAE2B0E0EAE2F0E080818B7FB0
:101D80008C931BC089818260898389818460898367
:101D9000AAE2B0E0EAE2F0E080818B7F8C930DC094
:101DA000898182608983898184608983AAE2B0E025
:101DB000EAE2F0E0808184608C9389818068898385
:101DC000E0E4F0E0898180832D960FB6F894DEBFC1
:101DD0000FBECDBFCF91DF910895DF93CF93CDB7E5
:101DE000DEB7AAE2B0E0EAE2F0E0808188608C939E
:101DF000CF91DF910895DF93CF93CDB7DEB7AAE2FD
:101E0000B0E0EAE2F0E0808180618C93CF91DF91D5
:101E10000895DF93CF93CDB7DEB7AAE2B0E0EAE250
:101E2000F0E0808180648C93CF91DF910895DF93FF
:101E3000CF93CDB7DEB7AAE2B0E0EAE2F0E080816E
:101E400080688C93CF91DF910895DF93CF93CDB7C6
:101E5000DEB7AAE2B0E0EAE2F0E080818F778C930F
:101E6000CF91DF910895DF93CF93CDB7DEB7AAE28C
:101E7000B0E0EAE2F0E0808180628C93CF91DF9164
:101E80000895DF93CF93CDB7DEB7E9E2F0E087E6C0
:101E90008083E0E4F0E01082CF91DF910895DF933A
:101EA000CF930F92CDB7DEB78983EBE2F0E080816C
:101EB000829586958770882F90E08170907000974A
:101EC000A1F3ECE2F0E0898180830F90CF91DF9164
:101ED0000895DF93CF93CDB7DEB7EBE2F0E08081DA
:101EE0008823DCF7ECE2F0E08081CF91DF91089568
:101EF000DF93CF9300D00F92CDB7DEB79B838A8359
:101F000019821BC0EBE2F0E0808182958695877094
:101F1000882F90E0817090700097A1F3ACE2B0E060
:101F20008981282F30E08A819B81FC01E20FF31F19
:101F300080818C9389818F5F89838981282F30E00C
:101F40008A819B81FC01E20FF31F80818823D1F6F7
:101F50000F900F900F90CF91DF910895DF93CF9363
:101F600000D000D00F92CDB7DEB79D838C831A824C
:101F7000EBE2F0E080818823DCF7ECE2F0E08081A6
:101F80008B83EBE2F0E080818823DCF7ECE2F0E089
:101F90008081898399818B81981789F48A81282F80
:101FA00030E08C819D81FC01E20FF31F10820F90C5
:101FB0000F900F900F900F90CF91DF9108958A812D
:101FC000282F30E08C819D81FC01E20FF31F898175
:101FD00080838A818F5F8A83D4CFDF93CF93CDB7FD
:101FE000DEB70E94FC0CCF91DF910895DF93CF9371
:101FF000CDB7DEB70E94F20CCF91DF910895DF9349
:10200000CF93CDB7DEB7A7E3B0E0E7E3F0E08081A0
:1020100088608C930E949E0C0E94B30C0E94C80C96
:10202000CF91DF910895DF93CF93CDB7DEB70E94B4
:10203000D00DCF91DF910895DF93CF93CDB7DEB769
:102040000E94DE0DCF91DF910895DF93CF93CDB73E
:10205000DEB7A1E3B0E0E1E3F0E0808180618C9342
:102060000E943B0D0E945E0D0E94810DEBE4F0E0AA
:1020700089E08083EAE4F0E084EC8083CF91DF9113
:102080000895DF93CF930F92CDB7DEB719820E94E8
:10209000C10A898389810F90CF91DF910895DF93E1
:1020A000CF9300D000D000D0CDB7DEB79D838C8316
:1020B0006E831B828C819D81892F992783709070FC
:1020C000880F991F806A969587958A838C8189836A
:1020D0000E94F00A8130A1F48A8160E00E945D0BC9
:1020E000813071F489810E94AA0B813049F48E817C
:1020F0000E94AA0B813021F40E94440B81E08B8363
:102100008B8126960FB6F894DEBF0FBECDBFCF9160
:10211000DF910895DF93CF93CDB7DEB727970FB642
:10212000F894DEBF0FBECDBF9D838C837F836E830B
:102130001B828C819D81892F992783709070880FD5
:10214000991F806A969587958A838C8189830E94DE
:10215000F00A8130F9F48A8160E00E945D0B8130E1
:10216000C9F489810E94AA0B8130A1F40E941A0B44
:10217000813081F48A8161E00E945D0B813051F4ED
:102180008E819F810E940A0C813021F40E94440BB1
:1021900081E08B838B8127960FB6F894DEBF0FBE4C
:1021A000CDBFCF91DF910895DF93CF93CDB7DEB749
:1021B00064970FB6F894DEBF0FBECDBF998B888BA6
:1021C0007B8B6A8B4C8B1F868AC08F85282F30E0D3
:1021D00088899989A901480F591F8F85282F30E0D8
:1021E0008A899B89FC01E20FF31F2081CA01622FBB
:1021F0000E944F1080E090E0A6E1B3E48B879C87BB
:10220000AD87BE876B857C858D859E8520E030E01F
:102210004AE755E40E941F02DC01CB018F839887B7
:10222000A987BA876F81788589859A8520E030E013
:1022300040E85FE30E94790388232CF481E090E07A
:102240009E838D833FC06F81788589859A8520E044
:102250003FEF4FE757E40E94190318164CF56B85C2
:102260007C858D859E8520E030E040E251E40E942F
:102270001F02DC01CB01BC01CD010E944900DC0141
:10228000CB019E838D830FC080E991E09C838B837B
:102290008B819C810197F1F79C838B838D819E813B
:1022A00001979E838D838D819E81009769F714C06D
:1022B0006F81788589859A850E944900DC01CB0170
:1022C0009E838D838D819E819A83898389819A8162
:1022D0000197F1F79A8389838F858F5F8F879F8519
:1022E0008C89981708F471CF64960FB6F894DEBF06
:1022F0000FBECDBFCF91DF910895DF93CF93CDB7C0
:10230000DEB764970FB6F894DEBF0FBECDBF998BD2
:10231000888B7B8B6A8B4C8B1F8688C08F85282F80
:1023200030E088899989A901480F591F8F85282F86
:1023300030E08A899B89280F391FCA01B9010E94A0
:102340008A1080E090E0A6E1B3E48B879C87AD879C
:10235000BE876B857C858D859E8520E030E04AE7D1
:1023600055E40E941F02DC01CB018F839887A98767
:10237000BA876F81788589859A8520E030E040E8CA
:102380005FE30E94790388232CF481E090E09E8330
:102390008D833FC06F81788589859A8520E03FEFE6
:1023A0004FE757E40E94190318164CF56B857C859E
:1023B0008D859E8520E030E040E251E40E941F02BE
:1023C000DC01CB01BC01CD010E944900DC01CB0145
:1023D0009E838D830FC080E991E09C838B838B81EA
:1023E0009C810197F1F79C838B838D819E8101975E
:1023F0009E838D838D819E81009769F714C06F81C4
:10240000788589859A850E944900DC01CB019E83ED
:102410008D838D819E819A83898389819A81019799
:10242000F1F79A8389838F858F5F8F879F858C894A
:10243000981708F473CF64960FB6F894DEBF0FBEFA
:10244000CDBFCF91DF910895DF93CF93CDB7DEB7A6
:102450002F970FB6F894DEBF0FBECDBF8A877C875B
:102460006B878A85282F30E03F872E878E859F8552
:102470008634910509F434C12E853F852734310512
:102480002CF58E859F858334910509F4A3C02E8594
:102490003F85243431056CF48E859F858134910508
:1024A00009F43EC02E853F852234310509F465C00C
:1024B00042C18E859F858434910509F4B8C02E856C
:1024C0003F852534310509F4DFC035C18E859F85F0
:1024D0008336910509F47EC02E853F85243631056B
:1024E00064F48E859F8581369105D1F02E853F85D8
:1024F0002236310509F441C01EC18E859F8585367F
:10250000910509F4C1C02E853F85253631050CF4AF
:102510008EC08E859F858636910509F4E1C00BC17A
:102520009E012E5F3F4F80E090E0B90148E00E949D
:102530007D11CE0102962B853C85B9010E94362281
:1025400089838981882309F0F6C09E012E5F3F4F61
:1025500080E390E0B90148E00E947D11CE0102962F
:102560002B853C85B9010E94362289838981882385
:1025700009F0E1C092E09D87DFC09E012E5F3F4FD2
:1025800088E090E0B90148E00E947D11CE010296FA
:102590002B853C85B9010E94362289838981882355
:1025A00009F0C9C09E012E5F3F4F88E390E0B9015A
:1025B00048E00E947D11CE0102962B853C85B90131
:1025C0000E94362289838981882309F0B4C021E0E2
:1025D0002D87B2C09E012E5F3F4F80E190E0B90190
:1025E00048E00E947D11CE0102962B853C85B90101
:1025F0000E94362289838981882309F09CC09E012C
:102600002E5F3F4F80E490E0B90148E00E947D11C9
:10261000CE0102962B853C85B9010E943622898322
:102620008981882309F087C031E03D8785C09E01FC
:102630002E5F3F4F88E190E0B90148E00E947D1194
:10264000CE0102962B853C85B9010E9436228983F2
:102650008981882309F06FC09E012E5F3F4F88E477
:1026600090E0B90148E00E947D11CE0102962B85D1
:102670003C85B9010E94362289838981882309F02B
:102680005AC081E08D8758C09E012E5F3F4F80E287
:1026900090E0B90148E00E947D11CE0102962B85A1
:1026A0003C85B9010E94362289838981882309F0FB
:1026B00042C09E012E5F3F4F80E590E0B90148E0A7
:1026C0000E947D11CE0102962B853C85B9010E94A6
:1026D000362289838981882371F591E09D872CC0FA
:1026E0009E012E5F3F4F88E290E0B90148E00E94D2
:1026F0007D11CE0102962B853C85B9010E943622C0
:10270000898389818823B9F49E012E5F3F4F88E534
:1027100090E0B90148E00E947D11CE0102962B8520
:102720003C85B9010E94362289838981882319F466
:1027300021E02D8701C01D868D852F960FB6F89458
:10274000DEBF0FBECDBFCF91DF910895DF93CF9352
:102750000F92CDB7DEB7198281E064E041E00E94BC
:102760009E0781E065E041E00E949E0781E066E00F
:1027700041E00E949E0781E067E041E00E949E07E1
:1027800082E063E040E00E949E0782E064E040E077
:102790000E949E0782E065E040E00E949E0782E082
:1027A00066E040E00E949E0781E064E041E00E9414
:1027B0008A0881E065E041E00E948A0881E066E0E5
:1027C00041E00E948A0881E067E041E00E948A08B7
:1027D00082E063E041E00E948A0882E064E041E038
:1027E0000E948A0882E065E041E00E948A0882E057
:1027F00066E041E00E948A0889810F90CF91DF91C5
:102800000895DF93CF93CDB7DEB7EA970FB6F8946C
:10281000DEBF0FBECDBF9CAB8BAB198A81E08A8B2C
:1028200081E08B8B81E08C8B81E08D8B84E08E8BC3
:1028300085E08F8B86E0888F87E0898F82E08A8FA2
:1028400082E08B8F82E08C8F82E08D8F83E08E8F91
:1028500084E08F8F85E088A386E089A3188A3FC132
:102860008889282F30E0CE014296FC01E20FF31F49
:1028700040818889282F30E0CE014696FC01E20F86
:10288000F31F9081842F692F40E00E948A081F86E1
:1028900008C18F85282F30E0CE014A96FC01E20F57
:1028A000F31F40818F85282F30E0CE014E96FC012A
:1028B000E20FF31F90819E012E5D3F4F842F692F01
:1028C000A9010E94070A8AA1882309F0E7C080E0D5
:1028D00090E0A0E2B1E48B879C87AD87BE876B85D3
:1028E0007C858D859E8520E030E04AE755E40E9496
:1028F0001F02DC01CB018F839887A987BA876F817C
:10290000788589859A8520E030E040E85FE30E9481
:10291000790388232CF481E090E09E838D833FC06F
:102920006F81788589859A8520E03FEF4FE757E4EE
:102930000E94190318164CF56B857C858D859E8544
:1029400020E030E040E251E40E941F02DC01CB01B4
:10295000BC01CD010E944900DC01CB019E838D8327
:102960000FC080E991E09C838B838B819C810197D0
:10297000F1F79C838B838D819E8101979E838D834C
:102980008D819E81009769F714C06F817885898554
:102990009A850E944900DC01CB019E838D838D8145
:1029A0009E819A83898389819A810197F1F79A831D
:1029B00089838F85282F30E0CE014A96FC01E20FF3
:1029C000F31F40818F85282F30E0CE014E96FC0109
:1029D000E20FF31F90819E012E5D3F4F842F692FE0
:1029E000A9010E94070A8AA1882309F057C01AC0CA
:1029F0008F85282F30E0CE014A96FC01E20FF31FAD
:102A000040818F85282F30E0CE014E96FC01E20FE9
:102A1000F31F90819E012E5D3F4F842F692FA901E6
:102A20000E94070A8AA1882319F3CE0183969FABDF
:102A30008EABEDE1F4E0F9AFE8AFF0E1FAAFE8AD6D
:102A4000F9AD008088AD99AD019699AF88AFEEA938
:102A5000FFA900828EA99FA901969FAB8EAB9AAD6C
:102A600091509AAFEAADEE2351F78F85282F30E0D1
:102A70008889482F50E0220F331F220F331FCE01C9
:102A80000196820F931F840F951FFC01B2968081DF
:102A9000EBA9FCA98083F1E0FDAB2BC08F858F5F94
:102AA0008F878F85843008F4F4CE8889282F30E012
:102AB000CE014296FC01E20FF31F40818889282F46
:102AC00030E0CE014696FC01E20FF31F9081842F87
:102AD000692F41E00E948A0888898F5F888B8889E6
:102AE000843008F4BDCEEBA9FCA98FEF80838989DF
:102AF0008DAB8DA9EA960FB6F894DEBF0FBECDBFA1
:102B0000CF91DF910895DF93CF9300D0CDB7DEB79B
:102B1000CE0101960E94011489818F3F19F081E056
:102B20008A8302C08FEF8A838A810F900F90CF91A2
:102B3000DF910895DF93CF9300D000D0CDB7DEB7FB
:102B40009C838B830E9483158F3FE1F3198215C00C
:102B5000CE0102960E9401148AE290E00E941118B0
:102B60008981282F30E08B819C81FC01E20FF31FCB
:102B70008A81808389818F5F89838981843040F352
:102B80000F900F900F900F90CF91DF910895DF93EA
:102B9000CF93CDB7DEB7E9970FB6F894DEBF0FBE7F
:102BA000CDBF19AE81E061E041E00E949E0781E067
:102BB00062E041E00E949E0780E061E041E00E9407
:102BC0009E0780E067E041E00E949E0780E066E0AB
:102BD00041E00E949E0780E065E041E00E949E0780
:102BE00080E064E041E00E949E0780E090E0ACE07D
:102BF000B2E48DAB9EABAFABB8AF6DA97EA98FA988
:102C000098AD20E030E04AE755E40E941F02DC0165
:102C1000CB0189AB9AABABABBCAB69A97AA98BA949
:102C20009CA920E030E040E85FE30E94790388231C
:102C30002CF481E090E098AB8FA73FC069A97AA9F6
:102C40008BA99CA920E03FEF4FE757E40E941903AE
:102C500018164CF56DA97EA98FA998AD20E030E03B
:102C600040E251E40E941F02DC01CB01BC01CD0116
:102C70000E944900DC01CB0198AB8FA70FC080E90F
:102C800091E09EA78DA78DA59EA50197F1F79EA720
:102C90008DA78FA598A9019798AB8FA78FA598A905
:102CA000009769F714C069A97AA98BA99CA90E9409
:102CB0004900DC01CB0198AB8FA78FA598A99CA7F1
:102CC0008BA78BA59CA50197F1F79CA78BA781E00B
:102CD00061E040E00E948A0888E20E94371880E0A4
:102CE00090E0A0E8BFE38FA398A7A9A7BAA76FA118
:102CF00078A589A59AA520E030E04AE755E40E942E
:102D00001F02DC01CB018BA39CA3ADA3BEA36BA1CF
:102D10007CA18DA19EA120E030E040E85FE30E940D
:102D2000790388232CF481E090E09AA389A33FC023
:102D30006BA17CA18DA19EA120E03FEF4FE757E45E
:102D40000E94190318164CF56FA178A589A59AA5BC
:102D500020E030E040E251E40E941F02DC01CB01A0
:102D6000BC01CD010E944900DC01CB019AA389A3DB
:102D70000FC080E991E098A38F8F8F8D98A1019764
:102D8000F1F798A38F8F89A19AA101979AA389A39C
:102D900089A19AA1009769F714C06BA17CA18DA1AC
:102DA0009EA10E944900DC01CB019AA389A389A1BD
:102DB0009AA19E8F8D8F8D8D9E8D0197F1F79E8F9D
:102DC0008D8F81E061E040E00E948A088FE00E94E0
:102DD000371880E090E0A0E8BFE3898F9A8FAB8F2F
:102DE000BC8F698D7A8D8B8D9C8D20E030E04AE719
:102DF00055E40E941F02DC01CB018D8B9E8BAF8BB3
:102E0000B88F6D897E898F89988D20E030E040E809
:102E10005FE30E94790388232CF481E090E09C8B8F
:102E20008B8B3FC06D897E898F89988D20E03FEF25
:102E30004FE757E40E94190318164CF5698D7A8DF7
:102E40008B8D9C8D20E030E040E251E40E941F0217
:102E5000DC01CB01BC01CD010E944900DC01CB01AA
:102E60009C8B8B8B0FC080E991E09A8B898B898931
:102E70009A890197F1F79A8B898B8B899C890197A5
:102E80009C8B8B8B8B899C89009769F714C06D890B
:102E90007E898F89988D0E944900DC01CB019C8B33
:102EA0008B8B8B899C89988B8F878F8598890197CD
:102EB000F1F7988B8F8781E061E040E00E948A08FB
:102EC00081E00E94371880E090E0A0E0B0E48B87BA
:102ED0009C87AD87BE876B857C858D859E8520E030
:102EE00030E04AE755E40E941F02DC01CB018F83EA
:102EF0009887A987BA876F81788589859A8520E028
:102F000030E040E85FE30E94790388232CF481E0FD
:102F100090E09E838D833FC06F81788589859A85F7
:102F200020E03FEF4FE757E40E94190318164CF5D5
:102F30006B857C858D859E8520E030E040E251E404
:102F40000E941F02DC01CB01BC01CD010E9449009F
:102F5000DC01CB019E838D830FC080E991E09C83CF
:102F60008B838B819C810197F1F79C838B838D816F
:102F70009E8101979E838D838D819E81009769F745
:102F800014C06F81788589859A850E944900DC018B
:102F9000CB019E838D838D819E819A8389838981D4
:102FA0009A810197F1F79A83898381E061E040E09B
:102FB0000E948A0886E00E94371889ADE9960FB60C
:102FC000F894DEBF0FBECDBFCF91DF910895DF93A0
:102FD000CF9300D0CDB7DEB78A83198281E061E05C
:102FE00041E00E948A088A810E94371889810F90E7
:102FF0000F90CF91DF910895DF93CF9300D0CDB79D
:10300000DEB78A83198281E061E040E00E948A088D
:103010008A810E94371889810F900F90CF91DF919C
:103020000895DF93CF9300D00F92CDB7DEB79B8387
:103030008A83198210C081E061E041E00E948A0821
:10304000EA81FB8120818A819B8101969B838A830F
:10305000822F0E943718EA81FB818081882359F7EB
:1030600089810F900F900F90CF91DF9108950F936A
:103070001F93DF93CF93CDB7DEB7C655D0400FB6C1
:10308000F894DEBF0FBECDBFFE01EA5AFF4F80832A
:10309000FE01EB5AFF4F108280E061E040E00E94A9
:1030A0008A0881E062E040E00E948A08FE01EA5A54
:1030B000FF4F8081883209F079C1FE01EA5AFF4F43
:1030C0008081982F991F9927991F80E067E0492FE9
:1030D0000E948A08FE01EA5AFF4F808182958695F8
:1030E00086958370982F917080E066E0492F0E944A
:1030F0008A08FE01EA5AFF4F808182958695877083
:10310000982F917080E065E0492F0E948A08FE01A7
:10311000EA5AFF4F808182958F70982F917080E0DE
:1031200064E0492F0E948A0880E061E041E00E944B
:103130008A08FE01EF5AFF4F80E090E0A0EAB0E479
:1031400080839183A283B3838E01035B1F4FFE01B3
:10315000EF5AFF4F608171818281938120E030E0DE
:103160004AE755E40E941F02DC01CB01F80180838D
:103170009183A283B383FE01E35BFF4F6081718182
:103180008281938120E030E040E85FE30E94790390
:10319000882344F4FE01E55BFF4F81E090E09183DA
:1031A000808364C0FE01E35BFF4F60817181828197
:1031B000938120E03FEF4FE757E40E941903181670
:1031C0000CF043C0FE01EF5AFF4F60817181828194
:1031D000938120E030E040E251E40E941F02DC01D4
:1031E000CB018E01055B1F4FBC01CD010E94490040
:1031F000DC01CB01F801918380831FC0FE01E75BF6
:10320000FF4F80E991E091838083FE01E75BFF4FF0
:10321000808191810197F1F7FE01E75BFF4F918378
:103220008083DE01A55BBF4FFE01E55BFF4F808120
:103230009181019711969C938E93FE01E55BFF4F60
:10324000808191810097D1F627C08E01055B1F4FC9
:10325000FE01E35BFF4F60817181828193810E9457
:103260004900DC01CB01F80191838083DE01A95B79
:10327000BF4FFE01E55BFF4F808191818D939C9351
:10328000FE01E95BFF4F808191810197F1F7FE011B
:10329000E95BFF4F9183808380E061E040E00E9422
:1032A0008A08FE01ED5BFF4F80E090E0A0EAB0E409
:1032B00080839183A283B3838E01015C1F4FFE0143
:1032C000ED5BFF4F608171818281938120E030E06E
:1032D0004AE755E40E941F02DC01CB01F80180831C
:1032E0009183A283B383FE01FF9660817181828105
:1032F000938120E030E040E85FE30E947903882377
:103300002CF481E090E09EAF8DAF46C0FE01FF96A9
:10331000608171818281938120E03FEF4FE757E424
:103320000E941903181664F5FE01ED5BFF4F6081E2
:1033300071818281938120E030E040E251E40E947B
:103340001F02DC01CB01BC01CD010E944900DC0160
:10335000CB019EAF8DAF0FC080E991E09CAF8BAFEA
:103360008BAD9CAD0197F1F79CAF8BAF8DAD9EAD52
:1033700001979EAF8DAF8DAD9EAD009769F716C0DA
:10338000FE01FF9660817181828193810E944900D4
:10339000DC01CB019EAF8DAF8DAD9EAD9AAF89AFF5
:1033A00089AD9AAD0197F1F79AAF89AFFE01EA5A5C
:1033B000FF4F8081982F991F9927991F80E067E020
:1033C000492F0E948A08FE01EA5AFF4F80818295A8
:1033D000869586958370982F917080E066E0492FDE
:1033E0000E948A08FE01EA5AFF4F808182958695E5
:1033F0008770982F917080E065E0492F0E948A08BD
:10340000FE01EA5AFF4F808182958F70982F91704C
:1034100080E064E0492F0E948A0880E061E041E09A
:103420000E948A0880E090E0A0EAB0E48DAB9EABF9
:10343000AFABB8AF6DA97EA98FA998AD20E030E001
:103440004AE755E40E941F02DC01CB0189AB9AAB2D
:10345000ABABBCAB69A97AA98BA99CA920E030E0F1
:1034600040E85FE30E94790388232CF481E090E038
:1034700098AB8FA73FC069A97AA98BA99CA920E026
:103480003FEF4FE757E40E94190318164CF56DA95A
:103490007EA98FA998AD20E030E040E251E40E947F
:1034A0001F02DC01CB01BC01CD010E944900DC01FF
:1034B000CB0198AB8FA70FC080E991E09EA78DA7A5
:1034C0008DA59EA50197F1F79EA78DA78FA598A919
:1034D000019798AB8FA78FA598A9009769F714C09B
:1034E00069A97AA98BA99CA90E944900DC01CB019A
:1034F00098AB8FA78FA598A99CA78BA78BA59CA5F8
:103500000197F1F79CA78BA780E061E040E00E9463
:103510008A0880E090E0A0EAB0E48FA398A7A9A76A
:10352000BAA76FA178A589A59AA520E030E04AE75F
:1035300055E40E941F02DC01CB018BA39CA3ADA329
:10354000BEA36BA17CA18DA19EA120E030E040E84C
:103550005FE30E94790388232CF481E090E09AA332
:1035600089A33FC06BA17CA18DA19EA120E03FEF6C
:103570004FE757E40E94190318164CF56FA178A580
:1035800089A59AA520E030E040E251E40E941F02A4
:10359000DC01CB01BC01CD010E944900DC01CB0163
:1035A0009AA389A30FC080E991E098A38F8F8F8D94
:1035B00098A10197F1F798A38F8F89A19AA10197FC
:1035C0009AA389A389A19AA1009769F714C06BA156
:1035D0007CA18DA19EA10E944900DC01CB019AA390
:1035E00089A389A19AA19E8F8D8F8D8D9E8D019724
:1035F000F1F79E8F8D8FFE01EA5AFF4F80818695ED
:1036000086958695982F917080E067E0492F0E94FB
:103610008A08FE01EA5AFF4F808186958695982F89
:10362000917080E066E0492F0E948A08FE01EA5A04
:10363000FF4F80818695982F917080E065E0492F3B
:103640000E948A08FE01EA5AFF4F8081982F9170EC
:1036500080E064E0492F0E948A0880E061E041E058
:103660000E948A0880E090E0A0EAB0E4898F9A8FF7
:10367000AB8FBC8F698D7A8D8B8D9C8D20E030E077
:103680004AE755E40E941F02DC01CB018D8B9E8B23
:10369000AF8BB88F6D897E898F89988D20E030E05F
:1036A00040E85FE30E94790388232CF481E090E0F6
:1036B0009C8B8B8B3FC06D897E898F89988D20E094
:1036C0003FEF4FE757E40E94190318164CF5698D38
:1036D0007A8D8B8D9C8D20E030E040E251E40E9499
:1036E0001F02DC01CB01BC01CD010E944900DC01BD
:1036F000CB019C8B8B8B0FC080E991E09A8B898BDF
:1037000089899A890197F1F79A8B898B8B899C8992
:1037100001979C8B8B8B8B899C89009769F714C0D0
:103720006D897E898F89988D0E944900DC01CB01CB
:103730009C8B8B8B8B899C89988B8F878F859889A5
:103740000197F1F7988B8F8780E061E040E00E945D
:103750008A0880E090E0A0EAB0E48B879C87AD8780
:10376000BE876B857C858D859E8520E030E04AE7AD
:1037700055E40E941F02DC01CB018F839887A98743
:10378000BA876F81788589859A8520E030E040E8A6
:103790005FE30E94790388232CF481E090E09E830C
:1037A0008D833FC06F81788589859A8520E03FEFC2
:1037B0004FE757E40E94190318164CF56B857C857A
:1037C0008D859E8520E030E040E251E40E941F029A
:1037D000DC01CB01BC01CD010E944900DC01CB0121
:1037E0009E838D830FC080E991E09C838B838B81C6
:1037F0009C810197F1F79C838B838D819E8101973A
:103800009E838D838D819E81009769F714C06F819F
:10381000788589859A850E944900DC01CB019E83C9
:103820008D838D819E819A83898389819A81019775
:10383000F1F79A838983FE01EB5AFF4F8081CA5AC0
:10384000DF4F0FB6F894DEBF0FBECDBFCF91DF9133
:103850001F910F910895DF93CF930F92CDB7DEB7ED
:10386000CE0101960E94011489818F3F19F0898150
:103870000E94E7170F90CF91DF910895DF93CF93C8
:10388000CDB7DEB781E061E040E00E948A0881E0C8
:103890000E943718CF91DF910895DF93CF9300D026
:1038A000CDB7DEB719820FC0CE0102960E94011477
:1038B0008A818F3F29F08AE28A838A810E94E717F2
:1038C00089818F5F89838981843070F30F900F9095
:1038D000CF91DF910895DF93CF93CDB7DEB780E02E
:1038E00062E041E00E949E0780E062E041E00E94C9
:1038F0008A0880E063E041E00E949E0780E063E088
:1039000041E00E948A0883E062E041E00E949E0755
:1039100083E062E041E00E948A0882E062E041E0E8
:103920000E949E0782E062E041E00E948A0883E0F4
:1039300066E041E00E949E0783E066E041E00E946D
:103940008A08CF91DF910895DF93CF93CDB7DEB78B
:1039500080E062E041E00E949E0780E062E040E09B
:103960000E948A0880E063E041E00E949E0780E0B8
:1039700063E040E00E948A0883E062E041E00E9448
:103980009E0783E062E040E00E948A0882E062E0F5
:1039900041E00E949E0782E062E040E00E948A08C7
:1039A00083E066E041E00E949E0783E066E040E03D
:1039B0000E948A08CF91DF910895DF93CF93CDB70E
:1039C000DEB783E067E041E00E949E0783E067E0A6
:1039D00041E00E948A08CF91DF910895DF93CF9351
:1039E000CDB7DEB783E067E041E00E949E0783E049
:1039F00067E040E00E948A08CF91DF910895DF934D
:103A0000CF93CDB7DEB781E090E060E070E041E0B9
:103A100050E028E030E00E94FA0D0E94410F0E9421
:103A2000FB0E0E94ED0E0E94170F80E690E00E94B0
:103A3000780FCF91DF910895DF93CF9300D000D01E
:103A400000D0CDB7DEB79C838B836D834E838E8190
:103A50008130D9F41A8214C00E94690F89838AE2E6
:103A600090E00E944F0F8A81282F30E08B819C814B
:103A7000FC01E20FF31F898180838A818F5F8A8333
:103A80009A818D81981740F31EC08E818823D9F4C6
:103A90001A8215C00E94690F89838981882F90E05E
:103AA0000E944F0F8A81282F30E08B819C81FC017E
:103AB000E20FF31F898180838A818F5F8A839A81D5
:103AC0008D81981738F326960FB6F894DEBF0FBE97
:103AD000CDBFCF91DF910895DF93CF9300D0CDB7C5
:103AE000DEB79A83898389819A810E94780F0F902B
:103AF0000F90CF91DF910895DF93CF9300D0CDB792
:103B0000DEB78A83198207C089E790E00E94780FA8
:103B100089818F5F898399818A819817A8F30F9093
:103B20000F90CF91DF910895DF93CF9300D000D015
:103B3000CDB7DEB79B838A836C8319821BC0EBE20F
:103B4000F0E08081829586958770882F90E0817063
:103B500090700097A1F3ACE2B0E08981282F30E0AB
:103B60008A819B81FC01E20FF31F80818C93898104
:103B70008F5F898399818C81981708F30F900F903C
:103B80000F900F90CF91DF910895DF93CF93CDB732
:103B9000DEB780E00E94050780E060E40E94A30594
:103BA000CF91DF910895DF93CF930F92CDB7DEB71A
:103BB0000E94C9060E94620780E00E942107882FA8
:103BC00090E0880F991F898389810F90CF91DF91B1
:103BD0000895DF93CF930F92CDB7DEB70E94D31D28
:103BE000898389818D3138F00E94ED0F80E890E063
:103BF0000E94111807C08981853120F40E94F60FB8
:103C00000E943E1C0F90CF91DF910895DF93CF93D8
:103C1000CDB7DEB7E3970FB6F894DEBF0FBECDBFCA
:103C20001F8A1D8A81E08B8B1A8A198A188A0E9442
:103C3000D6210E94E91D80913004813009F0D0C264
:103C400086E890E00E94780F8BEA90E00E94780F5F
:103C500082E090E00E947C1D8D89882309F0C6C017
:103C60000E94E91D8EEC90E00E946C1DCE018096B2
:103C700068E070E040E050E00E941C1D81E090E0B0
:103C80000E947C1D8CEE90E00E946C1DCE018896F7
:103C900068E070E040E050E00E941C1D82E090E08F
:103CA0000E947C1D8AE091E00E946C1DCE01C096AE
:103CB00064E070E040E050E00E941C1D82E090E073
:103CC0000E947C1D89E391E00E946C1DCE018096CC
:103CD00068E00E94941D81E090E00E947C1D89E4D0
:103CE00091E00E946C1DCE01889668E00E94941DB0
:103CF00081E090E00E947C1D89E591E00E946C1DAE
:103D0000CE01C09664E00E94941D82E090E00E9483
:103D10007C1D83E791E00E946C1D81EA91E00E9486
:103D20006C1D82E090E00E947C1D0E94690F8E8BCA
:103D30008E89833421F08E89833609F050C00E9429
:103D4000E91D89EB91E00E946C1D9E01205E3F4FB2
:103D500080E090E0B90148E00E94D4109E01285D07
:103D60003F4F80E390E0B90148E00E94D4109E01EB
:103D7000205D3F4F80E690E0B90144E00E94D410FE
:103D80008989885F898B88898C5F888B82E090E045
:103D90000E947C1D85EC91E00E946C1D8D89882F0E
:103DA00090E0FC01E95EFB4F80810E944F0F81E0B3
:103DB00090E00E947C1D80EE91E00E946C1D82E0EC
:103DC00090E00E947C1D8BE092E00E946C1D8D892A
:103DD0008F5F8D8B109230040E94170FFCC181E41D
:103DE0008E8B8E89813409F43BCFF5C18D89882370
:103DF00009F4F1C10E94E91D8FE392E00E94780F5F
:103E00008CE492E00E94780F0E94690F8E8B8E895D
:103E1000813421F08E89813609F0E7C00E94E91DC6
:103E20008EE592E00E94780F0E94690F8E8B87E7E3
:103E300092E00E946C1DCE01809668E070E040E048
:103E400050E00E941C1D81E090E00E947C1D8FE8E4
:103E500092E00E946C1DCE01889668E070E041E01F
:103E600050E00E941C1D82E090E00E947C1D0E9498
:103E7000690F8E8B8E89823419F08E89823651F4C7
:103E800087EA92E00E94780F81E090E00E947C1D1A
:103E90001C8A02C081E08C8B8C89882309F4BECFF8
:103EA0000E94690F8E8B8E89813421F08E89813634
:103EB00009F05BC00E94E91D86EB92E00E946C1D38
:103EC00080ED92E00E946C1D8BEE92E00E946C1DD2
:103ED00087E093E00E946C1D84E293E00E946C1DD9
:103EE0000E94690F8E8B8E898F3419F08E898F36E0
:103EF00049F40E9413100E943E1C87E493E00E9444
:103F0000111824C08E89833519F08E89833729F4DE
:103F10000E941C100E943E1C19C08E898C3419F01E
:103F20008E898C3649F40E946B1C0E943E1C81E5F0
:103F300093E00E9411180AC08E89833419F08E898B
:103F4000833621F40E94A41C0E943E1C8E89853475
:103F500019F08E89853621F681E090E00E947C1D63
:103F60008BE092E00E946C1D36C18E89853521F070
:103F70008E89853709F02FC10E94E91D8AE593E0FB
:103F80000E946C1D86E793E00E946C1D83E993E01C
:103F90000E946C1D0E94690F8E8B8E898C3419F0E3
:103FA0008E898C3649F40E946B1C0E943E1C85EB66
:103FB00093E00E9411180AC08E89833419F08E890B
:103FC000833621F40E94A41C0E943E1C8E898534F5
:103FD00019F08E898536F1F681E090E00E947C1D13
:103FE0008BE092E00E946C1DF6C08E89823421F035
:103FF0008E89823609F0EFC00E94E91D8EEC90E0B8
:104000000E946C1DCE01809668E070E040E050E0B8
:104010000E941C1D81E090E00E947C1D8CEE90E0CF
:104020000E946C1DCE01889668E070E041E050E08F
:104030000E941C1D82E090E00E947C1D0E94690F7E
:104040008E8B8E898C3419F08E898C3651F487EAE8
:1040500092E00E94780F81E090E00E947C1D1C8A13
:10406000B6C00E94E91D87E792E00E946C1DCE0158
:10407000809668E070E040E050E00E941C1D81E006
:1040800090E00E947C1D8FE892E00E946C1DCE01A2
:10409000889668E070E040E050E00E941C1D82E0DD
:1040A00090E00E947C1D89E391E00E946C1DCE018E
:1040B000809668E00E94941D81E090E00E947C1D43
:1040C00089E491E00E946C1DCE01889668E00E9410
:1040D000941D81E090E00E947C1D83E791E00E94A6
:1040E0006C1D81EA91E00E946C1D0E94690F8E8B0D
:1040F0008E89833421F08E89833609F062C089EB82
:1041000091E00E946C1D8989882F90E09E01205EBD
:104110003F4FB90148E00E94D4108989882F90E070
:10412000C0969E01285D3F4FB90148E00E94D4101F
:104130008889882F90E0805A9F4F9E01285D3F4FCD
:10414000B90144E00E94D4108D89882F90E0FC01D1
:10415000E95EFB4F8081882F90E061E00E94941D12
:104160008989885F898B88898C5F888B82E090E061
:104170000E947C1D85EC91E00E946C1D8D89882F2A
:1041800090E0FC01E95EFB4F80810E944F0F81E0CF
:1041900090E00E947C1D80EE91E00E946C1D82E008
:1041A00090E00E947C1D8BE092E00E946C1D8D8946
:1041B0008F5F8D8B109230040E94170F81E08C8BE3
:1041C00006C081E48E8B8E89813409F44ACF8C89B4
:1041D000882309F411CF109230040E94170F29CDC3
:1041E0000E9483158F3F910509F423CD0E943E1C48
:1041F0008EEB93E00E9411180E944D1CCE01479651
:104200000E9401148F89813009F4A7C00E943E1CCE
:104210008DEC93E00E94111880E090E0AAEFB4E4E6
:104220008B879C87AD87BE876B857C858D859E85BA
:1042300020E030E04AE755E40E941F02DC01CB0198
:104240008F839887A987BA876F81788589859A85B2
:1042500020E030E040E85FE30E94790388232CF4FB
:1042600081E090E09E838D833FC06F817885898552
:104270009A8520E03FEF4FE757E40E941903181694
:104280004CF56B857C858D859E8520E030E040E295
:1042900051E40E941F02DC01CB01BC01CD010E9450
:1042A0004900DC01CB019E838D830FC080E991E042
:1042B0009C838B838B819C810197F1F79C838B83FB
:1042C0008D819E8101979E838D838D819E81009734
:1042D00069F714C06F81788589859A850E944900A5
:1042E000DC01CB019E838D838D819E819A8389839E
:1042F00089819A810197F1F79A8389830E943E1CF4
:1043000088ED93E00E9411180E943E1C8EEB93E012
:104310000E941118CE0147960E9401148F898230A5
:10432000C1F08F89833089F48A898F5F8A8B81E01D
:104330008E8B8A89833049F40E943E1C88EE93E07C
:104340000E9411180E94DD1CF7CF8E89813009F47C
:104350005DCF8E89823009F449CF8EEE93E00E94C2
:1043600011188BEF93E00E94111887E094E00E94EF
:104370001118CE0147960E9401148F89813029F4CB
:104380000E946B1C83E08E8B0CC08F89823029F4D5
:104390000E94A41C83E08E8B04C08F89833009F4B3
:1043A00048CC8E89833009F421CF43CCDF93CF935F
:1043B000CDB7DEB781EF91E20E94880C0E94FF0F1B
:1043C0000E9425100E94C51D0E94C7150E94A613B9
:1043D0000E94FF1C0E94A50A0E944110CF91DF910C
:1043E0000895DF93CF93CDB7DEB781E0809330049B
:1043F0000E94690F0E94250FCF91DF9108952F929F
:104400003F924F925F926F927F928F929F92AF9264
:10441000BF92CF92DF92EF92FF920F931F93CF93B1
:10442000DF93CDB7DEB7CA1BDB0B0FB6F894DEBF48
:104430000FBECDBF09942A88398848885F846E846E
:104440007D848C849B84AA84B984C884DF80EE80B8
:10445000FD800C811B81AA81B981CE0FD11D0FB6C1
:10446000F894DEBF0FBECDBFED010895FB01DC0166
:104470008D91019080190110D9F3990B0895F8944A
:02448000FFCF6C
:10448200505245535320414E59204B455920544FC9
:104492002053544152540D0A00202020200D0A00BE
:1044A20041435F4F4E002A2A2A2A2A2A2A2A2A2AE6
:1044B2002A2A2A2A2A2A48492A2A2A2A2A2A2A2A1D
:1044C2002A2A2A2A2A2A2A2A0D0A0057656C636F89
:1044D2006D6520746F20436F6E74726F6C6C696EC1
:1044E2006720596F757220486F6D650D0A00506C18
:1044F2006561736520456E7465722041646D696EF5
:1045020020557365724E616D650D0A00506C6561D0
:10451200736520456E7465722041646D696E20502A
:10452200617373576F72640D0A00456E7465722071
:10453200596F75722041646D696E20345F446967FA
:1045420069747320456D657267656E637920506189
:104552007373576F72640D0A00596F757220557329
:1045620065724E616D650D0A00596F75722050615A
:104572007373776F72640D0A00596F757220456DFF
:10458200657267656E63792050617373576F7264E9
:104592000D0A00546F20436F6E6669726D2050726F
:1045A20065737320274327202A2A50524F475241CE
:1045B2004D2057494C4C20455849542A2A200D0A6F
:1045C20000546F204465636C696E65205072657398
:1045D2007320274427200D0A00504C4541534520A3
:1045E2005741495400594F55204152452055534592
:1045F20052204348415243544552206973202000BF
:104602002A2A2A2A504C45415345204D454D4F52A6
:10461200495A4520594F5552205553455220434837
:104622004152435445522A2A2A2A00494620594FC8
:1046320055205749534820544F2052455354415214
:1046420054205448452050524F4752414D20505219
:1046520045535320414E59204B4559200D0A0041E4
:1046620029205349474E20494E0D0A004229204134
:104672004444204E455720555345520D0A00454E9D
:1046820054455220555220555345522043484152D9
:10469200435445520D0A00506C6561736520456EA6
:1046A20074657220557365724E616D650D0A005016
:1046B2006C6561736520456E746572205061737319
:1046C200576F72640D0A0055736572204E6F742025
:1046D200466F756E6400546F204F70656E20446F94
:1046E2006F7220507265737320274F27200D0A00C6
:1046F200546F20436C6F736520446F6F7220507249
:1047020065737320275327200D0A00546F204F70C2
:10471200656E204C6967687420205072657373203F
:10472200274C27200D0A00546F20436C6F736520BD
:104732004C69676874202050726573732027432781
:10474200200D0A00546F2045786974205468652052
:1047520050726F6772616D205072657373202745C6
:104762002720200D0A2000444F4F52204F50454E23
:10477200004C49474854204F4E00546F204F7065FB
:104782006E204C69676874202070726573732027ED
:104792004C27200D0A00546F20436C6F7365204C28
:1047A200696768742020707265737320274327201D
:1047B2000D0A00546F2045786974205468652050B2
:1047C200726F6772616D205072657373202745277F
:1047D200200D0A20004C494748545F4F4E00454E79
:1047E2005445525F50415353574F52440057524F12
:1047F2004E475F494E464F00454E5445525F555312
:1048020045525F4E414D450045524F5252003129AB
:104812004C49474854204F4E20200032294C4947EA
:104822004854204F464600332920454E440000009C
:104832000000000000000141424344454637383938
:0E4842002F343536783132332D63303D2B0064
:00000001FF
