:100000000C942A000C9447000C9447000C94470071
:100010000C9447000C9447000C9447000C94470044
:100020000C9447000C9447000C9447000C94470034
:100030000C9447000C94C10A0C9447000C944700A0
:100040000C9447000C9447000C9447000C94470014
:100050000C94470011241FBECFE5D8E0DEBFCDBF12
:1000600013E0A0E6B0E0E4E4FBE302C005900D92EB
:10007000AA3BB107D9F714E0AAEBB3E001C01D9287
:10008000AD33B107E1F70E94CF190C94A01D0C9479
:100090000000EF92FF920F931F937B018C0120E0F1
:1000A00030E040E05FE40E94490388238CF0C801FF
:1000B000B70120E030E040E05FE40E94C1010E940F
:1000C000A9039B01AC01205030404040504806C07D
:1000D000C801B7010E94A9039B01AC01B901CA0183
:1000E0001F910F91FF90EF900895A0E0B0E0EBE733
:1000F000F0E00C94591DDC012B01FA019C91923027
:1001000008F439C1EB018881823008F433C194309E
:1001100069F4843009F02FC111969C91119789815F
:10012000981709F428C1A1EAB3E025C1843009F485
:1001300021C18230A9F4923009F01DC19A01AD01AC
:1001400088E0EA010990AE01E90109929E0181501F
:10015000C1F7E201898111969C918923818308C1AD
:10016000923009F407C112962D903C901397EB0141
:100170008A819B811496AD90BD90CD90DC901797AD
:10018000EC80FD800E811F819101281B390BB90184
:1001900037FF04C066277727621B730B6032710537
:1001A0000CF061C0121613066CF537014801062EDB
:1001B00004C096948794779467940A94D2F721E0C8
:1001C00030E040E050E004C0220F331F441F551FB1
:1001D0006A95D2F721503040404050402E213F21B7
:1001E00040235123211531054105510521F021E01E
:1001F00030E040E050E079018A01E628F72808293C
:1002000019293CC0232BD1F1260E371E350146019A
:10021000062E04C096948794779467940A94D2F734
:1002200021E030E040E050E004C0220F331F441FC3
:10023000551F6A95D2F721503040404050402A2146
:100240003B214C215D21211531054105510521F04E
:1002500021E030E040E050E059016A01A628B728CB
:10026000C828D9280BC0821593052CF01C01AA249C
:10027000BB24650103C0EE24FF24870111969C91E5
:10028000D20111968C91981709F445C0992339F041
:10029000A80197012A193B094C095D0906C0A6016E
:1002A00095012E193F09400B510B57FD08C01182D3
:1002B0003382228224833583468357831DC081E0A5
:1002C00081833382228288279927DC01821B930B4A
:1002D000A40BB50B84839583A683B7830DC0220F2F
:1002E000331F441F551F24833583468357838281E0
:1002F000938101979383828324813581468157813D
:10030000DA01C9010197A109B1098F5F9F4FAF4F72
:10031000BF4328F30BC0918333822282EA0CFB1C7B
:100320000C1D1D1DE482F5820683178383E0808304
:10033000248135814681578157FF1AC0C901AA27F8
:1003400097FDA095BA2F81709070A070B0705695EF
:10035000479537952795822B932BA42BB52B848318
:100360009583A683B7838281938101969383828349
:10037000DF0101C0D201CD01CDB7DEB7E2E10C94BF
:10038000751DA0E2B0E0E7ECF1E00C94651D698317
:100390007A838B839C832D833E834F835887E9E048
:1003A000EE2EF12CEC0EFD1ECE010196B7010E943F
:1003B000D2048E010F5E1F4FCE010596B8010E9438
:1003C000D2048A8991E089278A8BC701B801AE01DE
:1003D000475E5F4F0E9475000E94FD03A096E6E015
:1003E0000C94811DA0E2B0E0E8EFF1E00C94651DF3
:1003F00069837A838B839C832D833E834F835887C5
:10040000F9E0EF2EF12CEC0EFD1ECE010196B701A6
:100410000E94D2048E010F5E1F4FCE010596B801D7
:100420000E94D204C701B801AE01475E5F4F0E942F
:1004300075000E94FD03A096E6E00C94811DA0E2E9
:10044000B0E0E5E2F2E00C94591D69837A838B8376
:100450009C832D833E834F835887CE010196BE0136
:10046000675F7F4F0E94D204CE010596BE016F5E8A
:100470007F4F0E94D2049985923088F0898982301A
:10048000C8F0943019F4823051F404C0843029F457
:10049000923081F481EA93E0C6C0923049F420E0C2
:1004A0009A858A89981321E02A87CE010996BBC0D4
:1004B000823049F420E09A858A89981321E02A8BBA
:1004C000CE014196B0C02D843E844F8458886D88FB
:1004D0007E888F88988CEE24FF248701AA24BB2471
:1004E000650140E050E060E070E0E0E0F0E0C10174
:1004F00081709070892BE9F0E60CF71C081D191D1E
:100500009A01AB012A0D3B1D4C1D5D1D80E090E062
:10051000A0E0B0E0E614F7040805190520F481E036
:1005200090E0A0E0B0E0BA01A901480F591F6A1F8E
:100530007B1FAA0CBB1CCC1CDD1C97FE08C081E0F5
:1005400090E0A0E0B0E0A82AB92ACA2ADB2A3196B6
:10055000E032F10549F0660C771C881C991C569412
:10056000479437942794C3CFFA85EA892B893C892D
:100570008B859C85280F391F2E5F3F4F17C0CA01FE
:1005800081709070892B61F016950795F794E79428
:1005900080E090E0A0E0B0E8E82AF92A0A2B1B2BC3
:1005A00076956795579547952F5F3F4F77FDE7CF36
:1005B0000CC0440F551F661F771F17FD4160EE0CDE
:1005C000FF1C001F111F21503040403090E05907A0
:1005D00090E0690790E4790760F32B8F3C8FDB0193
:1005E000CA018F779070A070B07080349105A1051A
:1005F000B10561F447FD0AC0E114F10401051105DC
:1006000029F0405C5F4F6F4F7F4F40781A8EFE1786
:1006100011F081E08A8F4D8F5E8F6F8F78A383E01A
:10062000898FCE0149960E94FD03A096E2E10C94C9
:10063000751DA8E1B0E0EFE1F3E00C94651D69835E
:100640007A838B839C832D833E834F83588789E0F5
:10065000E82EF12CEC0EFD1ECE010196B7010E9492
:10066000D2048E010F5E1F4FCE010596B8010E9485
:10067000D2048985823040F08989823028F0C70110
:10068000B8010E944A0501C08FEF6896E6E00C941D
:10069000811DA8E1B0E0EFE4F3E00C94651D6983EF
:1006A0007A838B839C832D833E834F83588789E095
:1006B000E82EF12CEC0EFD1ECE010196B7010E9432
:1006C000D2048E010F5E1F4FCE010596B8010E9425
:1006D000D2048985823040F08989823028F0C701B0
:1006E000B8010E944A0501C08FEF6896E6E00C94BD
:1006F000811DA8E1B0E0EFE7F3E00C94651D69838C
:100700007A838B839C832D833E834F83588789E034
:10071000E82EF12CEC0EFD1ECE010196B7010E94D1
:10072000D2048E010F5E1F4FCE010596B8010E94C4
:10073000D2048985823040F08989823028F0C7014F
:10074000B8010E944A0501C081E06896E6E00C9479
:10075000811DACE0B0E0EFEAF3E00C94691D698321
:100760007A838B839C83CE010196BE016B5F7F4FA2
:100770000E94D2048D81823061F1823050F1843048
:1007800021F48E81882351F12EC02F81388537FDC9
:1007900020C06E812F3131051CF06623F9F023C093
:1007A0008EE190E0821B930B29853A854B855C8511
:1007B00004C056954795379527958A95D2F76623B5
:1007C000B1F050954095309521953F4F4F4F5F4F79
:1007D0000EC020E030E040E050E009C02FEF3FEFD6
:1007E0004FEF5FE704C020E030E040E050E8B9019F
:1007F000CA012C96E2E00C94851DDF92EF92FF92E5
:100800000F931F93FC01E480F58006811781D1804E
:100810008081823048F480E090E0A0E1B0E0E82AF6
:10082000F92A0A2B1B2BA5C0843009F49FC0823003
:1008300021F4EE24FF24870105C0E114F104010531
:10084000110519F4E0E0F0E096C0628173819FEF3A
:10085000623879070CF05BC022E83FEF261B370BAC
:100860002A3131052CF020E030E040E050E02AC091
:10087000B801A701022E04C0769567955795479554
:100880000A94D2F781E090E0A0E0B0E004C0880FC5
:10089000991FAA1FBB1F2A95D2F70197A109B10979
:1008A0008E219F21A023B1230097A105B10521F03E
:1008B00081E090E0A0E0B0E09A01AB01282B392B59
:1008C0004A2B5B2BDA01C9018F779070A070B07052
:1008D00080349105A105B10539F427FF09C0205CDA
:1008E0003F4F4F4F5F4F04C0215C3F4F4F4F5F4F13
:1008F000E0E0F0E02030A0E03A07A0E04A07A0E402
:100900005A0710F0E1E0F0E079018A0127C0603871
:10091000710564F5FB01E158FF4FD801C7018F77DE
:100920009070A070B07080349105A105B10539F4C4
:10093000E7FE0DC080E490E0A0E0B0E004C08FE3EB
:1009400090E0A0E0B0E0E80EF91E0A1F1B1F17FFA1
:1009500005C016950795F794E794319687E01695AC
:100960000795F794E7948A95D1F705C0EE24FF2404
:100970008701EFEFF0E06E2F679566276795902F60
:100980009F77D794DD24D7948E2F8695492F462BB9
:10099000582F5D29B701CA011F910F91FF90EF9069
:1009A000DF900895FC01DB01408151812281622F9B
:1009B0006F7770E0221F2227221F9381892F880FD3
:1009C000822B282F30E0991F9927991F11969C930D
:1009D000119721153105A9F54115510561057105DD
:1009E00011F482E037C082E89FEF13969C938E93B8
:1009F00012979A01AB0167E0220F331F441F551F66
:100A00006A95D1F783E08C930DC0220F331F441FEA
:100A1000551F12968D919C911397019713969C9355
:100A20008E931297203080E0380780E0480780E4FA
:100A3000580758F314962D933D934D935C93179755
:100A400008952F3F310579F4411551056105710570
:100A500019F484E08C93089564FF03C081E08C93C3
:100A600012C01C9210C02F57304013963C932E9307
:100A7000129783E08C9387E0440F551F661F771F02
:100A80008A95D1F7706414964D935D936D937C9322
:100A9000179708951F93DC01FB019C91923008F495
:100AA00047C08081823008F443C0943051F41196DD
:100AB0001C91843099F58181682F70E0611B710968
:100AC0003FC0843021F0923031F48230B9F181811D
:100AD000882389F12DC011961C9111978230F1F075
:100AE00081811817D9F412962D913C911397828128
:100AF00093818217930794F028173907BCF0149656
:100B00008D919D910D90BC91A02D248135814681C0
:100B10005781281739074A075B0718F4112341F05A
:100B20000AC082179307A407B50740F4112319F0F0
:100B300061E070E005C06FEF7FEF02C060E070E041
:100B4000CB011F910895DF93CF9300D000D000D048
:100B5000CDB7DEB789836A838A81282F30E03E8350
:100B60002D838D819E818031910509F46BC02D818B
:100B70003E81213131058CF48D819E818430910537
:100B8000A9F12D813E812830310509F445C08D81C0
:100B90009E8182309105A1F0ACC02D813E81203430
:100BA000310509F47BC08D819E818038910509F45F
:100BB0008BC02D813E812032310509F459C099C086
:100BC000A6E2B0E0E6E2F0E0808181608C93A6E2EC
:100BD000B0E0E6E2F0E080818D7F8C93A6E2B0E0A9
:100BE000E6E2F0E080818B7F8C9383C0A6E2B0E0E8
:100BF000E6E2F0E080818E7F8C93A6E2B0E0E6E250
:100C0000F0E0808182608C93A6E2B0E0E6E2F0E062
:100C100080818B7F8C936DC0A6E2B0E0E6E2F0E0CD
:100C2000808181608C93A6E2B0E0E6E2F0E0808112
:100C300082608C93A6E2B0E0E6E2F0E080818B7FF8
:100C40008C9357C0A6E2B0E0E6E2F0E080818E7FB0
:100C50008C93A6E2B0E0E6E2F0E080818D7F8C9399
:100C6000A6E2B0E0E6E2F0E0808184608C9341C0CF
:100C7000A6E2B0E0E6E2F0E0808181608C93A6E23B
:100C8000B0E0E6E2F0E080818D7F8C93A6E2B0E0F8
:100C9000E6E2F0E0808184608C932BC0A6E2B0E0B5
:100CA000E6E2F0E080818E7F8C93A6E2B0E0E6E29F
:100CB000F0E0808182608C93A6E2B0E0E6E2F0E0B2
:100CC000808184608C9315C0A6E2B0E0E6E2F0E09B
:100CD000808181608C93A6E2B0E0E6E2F0E0808162
:100CE00082608C93A6E2B0E0E6E2F0E0808184606E
:100CF0008C938981282F30E03C832B838B819C81CE
:100D00008130910551F02B813C812230310519F160
:100D10008B819C81009781F02CC0A7E2B0E0E7E2D4
:100D2000F0E080818F7B8C93A7E2B0E0E7E2F0E017
:100D300080818F778C931DC0A7E2B0E0E7E2F0E0FE
:100D4000808180648C93A7E2B0E0E7E2F0E08081EC
:100D50008F778C930EC0A7E2B0E0E7E2F0E08081ED
:100D600080648C93A7E2B0E0E7E2F0E080818068E5
:100D70008C93A6E2B0E0E6E2F0E0808180688C939C
:100D800026960FB6F894DEBF0FBECDBFCF91DF9190
:100D90000895DF93CF93CDB7DEB7A6E2B0E0E6E2E9
:100DA000F0E0808180648C93CF91DF910895DF9390
:100DB000CF930F92CDB7DEB7898389818830D0F485
:100DC000A0E5B0E0E0E5F0E080818F718C93A0E5D4
:100DD000B0E0E0E5F0E08081282F8981882F90E065
:100DE000880F991F82959295907F9827807F9827EA
:100DF000822B8C93A6E2B0E0E6E2F0E08081806294
:100E00008C930F90CF91DF910895DF93CF930F9242
:100E1000CDB7DEB789838981803278F4A7E2B0E06C
:100E2000E7E2F0E08081807E8C93A7E2B0E0E7E229
:100E3000F0E090818981892B8C930F90CF91DF9185
:100E40000895DF93CF9300D000D0CDB7DEB78A836B
:100E50008A81282F30E03C832B838B819C810097F3
:100E6000F1F02B813C812130310521F5E4E2F0E005
:100E70008081869586958983E5E2F0E08081882FE0
:100E800090E000249695879507949695879507940A
:100E9000982F802D982F8981892B89830BC0A7E2F9
:100EA000B0E0E7E2F0E0808180628C93E5E2F0E080
:100EB0008081898389810F900F900F900F90CF913F
:100EC000DF910895DF93CF93CDB7DEB7E6E2F0E090
:100ED0008081882F90E082959295907F9827807FDF
:100EE0009827009799F3A6E2B0E0E6E2F0E080816F
:100EF00080618C93CF91DF910895DF93CF93CDB72D
:100F0000DEB7A6E2B0E0E6E2F0E0808188608C9394
:100F1000CF91DF910895DF93CF930F92CDB7DEB7D6
:100F20001982EAE3F0E081EB8083EBE3F0E086E115
:100F3000808389810F90CF91DF910895DF93CF93C4
:100F400000D000D000D0CDB7DEB78A836B834C834E
:100F500019828A81843008F0D1C08B81883008F0F2
:100F6000CDC08C81823008F0C9C08A81282F30E042
:100F70003E832D836D817E816130710509F441C00E
:100F80008D819E818230910534F42D813E81211521
:100F9000310571F0B0C06D817E816230710509F458
:100FA00059C08D819E818330910509F47CC0A3C016
:100FB000AAE3B0E0EAE3F0E08081482F8B81282F9C
:100FC00030E081E090E002C0880F991F2A95E2F797
:100FD000809584238C93AAE3B0E0EAE3F0E080817B
:100FE000482F8C81282F30E08B81882F90E0B90129
:100FF00002C0660F771F8A95E2F7CB01842B8C9392
:101000007AC0A7E3B0E0E7E3F0E08081482F8B816E
:10101000282F30E081E090E002C0880F991F2A95C8
:10102000E2F7809584238C93A7E3B0E0E7E3F0E058
:101030008081482F8C81282F30E08B81882F90E091
:10104000B90102C0660F771F8A95E2F7CB01842BA6
:101050008C9351C0A4E3B0E0E4E3F0E08081482F3A
:101060008B81282F30E081E090E002C0880F991F2B
:101070002A95E2F7809584238C93A4E3B0E0E4E31F
:10108000F0E08081482F8C81282F30E08B81882FE1
:1010900090E0B90102C0660F771F8A95E2F7CB0195
:1010A000842B8C9328C0A1E3B0E0E1E3F0E08081E1
:1010B000482F8B81282F30E081E090E002C0880F1C
:1010C000991F2A95E2F7809584238C93A1E3B0E0E1
:1010D000E1E3F0E08081482F8C81282F30E08B8184
:1010E000882F90E0B90102C0660F771F8A95E2F75A
:1010F000CB01842B8C9381E0898302C082E08983B9
:10110000898126960FB6F894DEBF0FBECDBFCF9172
:10111000DF910895DF93CF9300D000D000D0CDB7FA
:10112000DEB78A836B834C8319828A81843008F00E
:10113000D4C08B81883008F0D0C08C81823020F000
:101140008C81823008F0C9C08A81282F30E03E832C
:101150002D836D817E816130710509F441C08D81DF
:101160009E818230910534F42D813E812115310517
:1011700071F0B0C06D817E816230710509F459C093
:101180008D819E818330910509F47CC0A3C0ABE3BF
:10119000B0E0EBE3F0E08081482F8B81282F30E036
:1011A00081E090E002C0880F991F2A95E2F78095B0
:1011B00084238C93ABE3B0E0EBE3F0E08081482F35
:1011C0008C81282F30E08B81882F90E0B90102C0FC
:1011D000660F771F8A95E2F7CB01842B8C937AC038
:1011E000A8E3B0E0E8E3F0E08081482F8B81282F6E
:1011F00030E081E090E002C0880F991F2A95E2F765
:10120000809584238C93A8E3B0E0E8E3F0E080814C
:10121000482F8C81282F30E08B81882F90E0B901F6
:1012200002C0660F771F8A95E2F7CB01842B8C935F
:1012300051C0A5E3B0E0E5E3F0E08081482F8B8169
:10124000282F30E081E090E002C0880F991F2A9596
:10125000E2F7809584238C93A5E3B0E0E5E3F0E02A
:101260008081482F8C81282F30E08B81882F90E05F
:10127000B90102C0660F771F8A95E2F7CB01842B74
:101280008C9328C0A2E3B0E0E2E3F0E08081482F35
:101290008B81282F30E081E090E002C0880F991FF9
:1012A0002A95E2F7809584238C93A2E3B0E0E2E3F1
:1012B000F0E08081482F8C81282F30E08B81882FAF
:1012C00090E0B90102C0660F771F8A95E2F7CB0163
:1012D000842B8C9381E0898302C082E08983898199
:1012E00026960FB6F894DEBF0FBECDBFCF91DF912B
:1012F0000895DF93CF9300D000D00F92CDB7DEB723
:101300008A836B8319828A81843008F075C08B814F
:10131000883008F071C08A81282F30E03D832C830B
:101320008C819D818130910549F12C813D81223054
:1013300031052CF48C819D81009761F05AC02C817D
:101340003D812230310571F18C819D818330910581
:10135000E9F14FC0ABE3B0E0EBE3F0E08081482F70
:101360008B81282F30E081E090E0022E02C0880FB0
:10137000991F0A94E2F784278C933BC0A8E3B0E05E
:10138000E8E3F0E08081482F8B81282F30E081E076
:1013900090E0022E02C0880F991F0A94E2F784277A
:1013A0008C9327C0A5E3B0E0E5E3F0E08081482F0F
:1013B0008B81282F30E081E090E0022E02C0880F60
:1013C000991F0A94E2F784278C9313C0A2E3B0E03C
:1013D000E2E3F0E08081482F8B81282F30E081E02C
:1013E00090E0022E02C0880F991F0A94E2F784272A
:1013F0008C9381E0898302C082E0898389810F9088
:101400000F900F900F900F90CF91DF910895DF9381
:10141000CF93CDB7DEB727970FB6F894DEBF0FBED8
:10142000CDBF8A836B835D834C8319828C819D81C0
:10143000009709F47EC08A81843008F077C08B81E0
:10144000883008F073C08A81282F30E03F832E83D4
:101450004E815F814130510559F18E819F818230EB
:10146000910534F42E813F812115310569F05BC06F
:101470004E815F814230510579F18E819F818330A9
:10148000910509F43DC04FC0E9E3F0E08081282FC9
:1014900030E08B81882F90E0A90102C055954795D7
:1014A0008A95E2F7CA018170EC81FD8180833BC09F
:1014B000E6E3F0E08081282F30E08B81882F90E0F8
:1014C000A90102C0559547958A95E2F7CA01817036
:1014D000EC81FD81808327C0E3E3F0E08081282F49
:1014E00030E08B81882F90E0A90102C05595479587
:1014F0008A95E2F7CA018170EC81FD81808313C077
:10150000E0E3F0E08081282F30E08B81882F90E0AD
:10151000A90102C0559547958A95E2F7CA018170E5
:10152000EC81FD81808381E0898305C082E089832D
:1015300002C083E08983898127960FB6F894DEBFC5
:101540000FBECDBFCF91DF910895DF93CF93CDB77D
:10155000DEB7AFE5B0E0EFE5F0E0808180688C9326
:10156000CF91DF910895DF93CF93CDB7DEB7AFE58D
:10157000B0E0EFE5F0E080818F778C93CF91DF9141
:1015800008951F920F920FB60F9211242F933F933D
:101590004F935F936F937F938F939F93AF93BF937B
:1015A000EF93FF93DF93CF93CDB7DEB78091BA036C
:1015B0009091BB03009729F0E091BA03F091BB032F
:1015C0000995CF91DF91FF91EF91BF91AF919F91DD
:1015D0008F917F916F915F914F913F912F910F90DC
:1015E0000FBE0F901F901895DF93CF9300D0CDB70B
:1015F000DEB79A83898389819A81009731F0898146
:101600009A819093BB038093BA030F900F90CF9170
:10161000DF9108958F929F92AF92BF92CF92DF9207
:10162000EF92FF920F931F93DF93CF93CDB7DEB767
:1016300062970FB6F894DEBF0FBECDBF9A83898341
:101640008B829C82AD82BE82CF82D886E986FA8662
:101650000B871C872D873E874F87588B698B7A8B2A
:1016600089A18130A9F48AA1882F90E09C0122955C
:101670003295307F3227207F322789819A81820FED
:10168000931F9E012D5F3F4FB9010E94991D1DC000
:1016900089A18823D1F48AA1882F90E09C0122950A
:1016A0003295307F3227207F322789819A81820FBD
:1016B000931FAC01485F5F4FCE0103969C01285FEA
:1016C0003F4FCA01B9010E94991D62960FB6F89466
:1016D000DEBF0FBECDBFCF91DF911F910F91FF9065
:1016E000EF90DF90CF90BF90AF909F908F90089534
:1016F0008F929F92AF92BF92CF92DF92EF92FF9222
:101700000F931F93DF93CF93CDB7DEB764970FB6D8
:10171000F894DEBF0FBECDBF9C838B838D829E82EB
:10172000AF82B886C986DA86EB86FC860D871E876F
:101730002F87388B498B5A8B6B8B7C8B8BA181309D
:1017400009F51A821BC08A81882F90E09C0122959E
:101750003295307F3227207F32278B819C81820F08
:10176000931F9E012B5F3F4FB9010E94901D009770
:1017700011F48A8189838A818F5F8A838A81883084
:1017800010F32CC08BA1882339F51A8221C08A81DD
:10179000882F90E09C0122953295307F3227207F60
:1017A00032278B819C81820F931FAC01485F5F4F72
:1017B000CE0105969C01285F3F4FCA01B9010E94E6
:1017C000901D009711F48A8189838A818F5F8A83B3
:1017D0008A818830E0F202C08FEF89838981649624
:1017E0000FB6F894DEBF0FBECDBFCF91DF911F9132
:1017F0000F91FF90EF90DF90CF90BF90AF909F90B0
:101800008F900895DF93CF93CDB7DEB7A3E5B0E017
:10181000E3E5F0E0808188608C93A3E5B0E0E3E548
:10182000F0E0808180648C93CF91DF910895DF9305
:10183000CF93CDB7DEB7A3E5B0E0E3E5F0E080817C
:1018400080628C93A3E5B0E0E3E5F0E080818F7ED9
:101850008C93CF91DF910895DF93CF93CDB7DEB70F
:10186000A3E5B0E0E3E5F0E0808181608C93A3E53F
:10187000B0E0E3E5F0E0808182608C93A3E5B0E026
:10188000E3E5F0E080818B7F8C93CF91DF91089529
:10189000DF93CF930F92CDB7DEB78983ECE5F0E00D
:1018A000898180830F90CF91DF910895DF93CF934B
:1018B000CDB7DEB7ECE5F0E01082CF91DF9108956F
:1018C000DF93CF93CDB7DEB7ECE5F0E088EC808313
:1018D000CF91DF910895DF93CF93CDB7DEB7A9E520
:1018E000B0E0E9E5F0E0808181608C93CF91DF91F9
:1018F0000895DF93CF930F92CDB7DEB78983ECE4E1
:10190000F0E08981882F90E0918380830F90CF91C0
:10191000DF910895DF93CF93CDB7DEB7AFE4B0E0AA
:10192000EFE4F0E0808180618C93AFE4B0E0EFE41D
:10193000F0E0808180628C93CF91DF910895DF93F6
:10194000CF93CDB7DEB7AFE4B0E0EFE4F0E0808155
:101950008D7F8C93AFE4B0E0EFE4F0E080818160B4
:101960008C93AEE4B0E0EEE4F0E08081877F8C936E
:10197000AEE4B0E0EEE4F0E0808180618C93CF9142
:10198000DF910895DF93CF93CDB7DEB7AFE4B0E03A
:10199000EFE4F0E080818F7E8C93AFE4B0E0EFE481
:1019A000F0E0808180628C93AEE4B0E0EEE4F0E0A1
:1019B00080818F7B8C93AEE4B0E0EEE4F0E0808138
:1019C00080688C93CF91DF910895DF93CF93CDB74B
:1019D000DEB7AEE4B0E0EEE4F0E0808181608C93AD
:1019E000AEE4B0E0EEE4F0E0808182608C93AEE49F
:1019F000B0E0EEE4F0E080818B7F8C93CF91DF91BB
:101A00000895DF93CF9300D0CDB7DEB79A83898353
:101A1000EBE4F0E089819A81892F99278083EAE4B9
:101A2000F0E0898180830F900F90CF91DF9108952E
:101A3000DF93CF930F92CDB7DEB78983EAE4F0E06E
:101A4000898180830F90CF91DF910895DF93CF93A9
:101A50000F92CDB7DEB78983EBE4F0E08981808314
:101A60000F90CF91DF910895DF93CF93CDB7DEB77D
:101A7000E9E4F0E01082E8E4F0E08AEF8083CF91BF
:101A8000DF910895DF93CF93CDB7DEB7E9E4F0E0BF
:101A90001082E8E4F0E08DE78083CF91DF91089534
:101AA000DF93CF93CDB7DEB7A1E3B0E0E1E3F0E0A1
:101AB00080818F7E8C93CF91DF910895DF93CF93B8
:101AC000CDB7DEB72D970FB6F894DEBF0FBECDBFF2
:101AD0008A836B834C832D8319828A81282F30E07F
:101AE0003D872C878C859D858130910551F02C8513
:101AF0003D852230310561F08C859D850097B1F0E0
:101B000018C089818F7B898381E08093A90311C0EC
:101B100089818F7B8983ABE2B0E0EBE2F0E08081EA
:101B200082608C9382E08093A90303C089818064E2
:101B300089838B81282F30E03B872A878A859B8584
:101B400081309105B9F02A853B852230310559F065
:101B50008A859B850097A1F489818F7E89838981FD
:101B60008F7D89830DC089818F7E89838981806281
:101B7000898306C0898180618983898180628983A4
:101B80008C81282F30E03987288788859985813096
:101B9000910531F0288539852230310529F007C0BB
:101BA0008981877F898303C08981886089838D814A
:101BB000282F30E03F832E838E819F8187309105CF
:101BC000B9F12E813F81283031055CF48E819F81EF
:101BD0008530910589F02E813F8126303105D1F085
:101BE00050C08E819F818830910581F12E813F8187
:101BF00029303105C9F145C089818D7F898389816B
:101C00008B7F8983AAE2B0E0EAE2F0E080818B7FFB
:101C10008C9337C089818260898389818B7F898396
:101C2000AAE2B0E0EAE2F0E080818B7F8C9329C0E9
:101C300089818D7F8983898184608983AAE2B0E06C
:101C4000EAE2F0E080818B7F8C931BC08981826007
:101C50008983898184608983AAE2B0E0EAE2F0E0C6
:101C600080818B7F8C930DC089818260898389817B
:101C700084608983AAE2B0E0EAE2F0E080818460D7
:101C80008C93898180688983E0E4F0E08981808396
:101C90002D960FB6F894DEBF0FBECDBFCF91DF916A
:101CA0000895DF93CF93CDB7DEB7AAE2B0E0EAE2C2
:101CB000F0E0808188608C93CF91DF910895DF936D
:101CC000CF93CDB7DEB7AAE2B0E0EAE2F0E08081E0
:101CD00080618C93CF91DF910895DF93CF93CDB73F
:101CE000DEB7AAE2B0E0EAE2F0E0808180648C93A3
:101CF000CF91DF910895DF93CF93CDB7DEB7AAE2FE
:101D0000B0E0EAE2F0E0808180688C93CF91DF91CF
:101D10000895DF93CF93CDB7DEB7AAE2B0E0EAE251
:101D2000F0E080818F778C93CF91DF910895DF93DE
:101D3000CF93CDB7DEB7AAE2B0E0EAE2F0E080816F
:101D400080628C93CF91DF910895DF93CF93CDB7CD
:101D5000DEB7E9E2F0E087E68083E0E4F0E01082BD
:101D6000CF91DF910895DF93CF930F92CDB7DEB778
:101D70008983EBE2F0E08081829586958770882FD9
:101D800090E0817090700097A1F3ECE2F0E089811F
:101D900080830F90CF91DF910895DF93CF93CDB7DC
:101DA000DEB7EBE2F0E080818823DCF7ECE2F0E0E4
:101DB0008081CF91DF910895DF93CF9300D00F9270
:101DC000CDB7DEB79B838A8319821BC0EBE2F0E0BC
:101DD0008081829586958770882F90E081709070C1
:101DE0000097A1F3ACE2B0E08981282F30E08A812E
:101DF0009B81FC01E20FF31F80818C9389818F5FAF
:101E000089838981282F30E08A819B81FC01E20F40
:101E1000F31F80818823D1F60F900F900F90CF9100
:101E2000DF910895DF93CF9300D000D00F92CDB70C
:101E3000DEB79D838C831A82EBE2F0E080818823F9
:101E4000DCF7ECE2F0E080818B83EBE2F0E0808174
:101E50008823DCF7ECE2F0E08081898399818B8133
:101E6000981789F48A81282F30E08C819D81FC01AC
:101E7000E20FF31F10820F900F900F900F900F90B2
:101E8000CF91DF9108958A81282F30E08C819D8148
:101E9000FC01E20FF31F898180838A818F5F8A832F
:101EA000D4CFDF93CF93CDB7DEB70E94600CCF9134
:101EB000DF910895DF93CF93CDB7DEB70E94560C24
:101EC000CF91DF910895DF93CF93CDB7DEB7A7E32E
:101ED000B0E0E7E3F0E0808188608C930E94020C20
:101EE0000E94170C0E942C0CCF91DF910895DF9374
:101EF000CF93CDB7DEB70E94340DCF91DF91089517
:101F0000DF93CF93CDB7DEB70E94420DCF91DF9123
:101F10000895DF93CF93CDB7DEB7A1E3B0E0E1E35F
:101F2000F0E0808180618C930E949F0C0E94C20C23
:101F30000E94E50CEBE4F0E089E08083EAE4F0E065
:101F400084EC8083CF91DF910895DF93CF930F923C
:101F5000CDB7DEB7198281E064E041E00E949E07C0
:101F600081E065E041E00E949E0781E066E041E09B
:101F70000E949E0781E067E041E00E949E0782E0A8
:101F800063E040E00E949E0782E064E040E00E943F
:101F90009E0782E065E040E00E949E0782E066E0E6
:101FA00040E00E949E0781E064E041E00E948A08D0
:101FB00081E065E041E00E948A0881E066E041E05E
:101FC0000E948A0881E067E041E00E948A0882E07E
:101FD00063E041E00E948A0882E064E041E00E9400
:101FE0008A0882E065E041E00E948A0882E066E0BB
:101FF00041E00E948A0889810F90CF91DF91089576
:10200000DF93CF93CDB7DEB7EA970FB6F894DEBF74
:102010000FBECDBF9CAB8BAB198A81E08A8B81E070
:102020008B8B81E08C8B81E08D8B84E08E8B85E0C7
:102030008F8B86E0888F87E0898F82E08A8F82E0AD
:102040008B8F82E08C8F82E08D8F83E08E8F84E097
:102050008F8F85E088A386E089A3188A3FC188898D
:10206000282F30E0CE014296FC01E20FF31F4081A1
:102070008889282F30E0CE014696FC01E20FF31F3D
:102080009081842F692F40E00E948A081F8608C132
:102090008F85282F30E0CE014A96FC01E20FF31F16
:1020A00040818F85282F30E0CE014E96FC01E20F53
:1020B000F31F90819E012E5D3F4F842F692FA90150
:1020C0000E94070A8AA1882309F0E7C080E090E017
:1020D000A0E2B1E48B879C87AD87BE876B857C854A
:1020E0008D859E8520E030E04AE755E40E941F027E
:1020F000DC01CB018F839887A987BA876F817885A8
:1021000089859A8520E030E040E85FE30E9479030A
:1021100088232CF481E090E09E838D833FC06F8103
:10212000788589859A8520E03FEF4FE757E40E9444
:10213000190318164CF56B857C858D859E8520E0EE
:1021400030E040E251E40E941F02DC01CB01BC01FF
:10215000CD010E944900DC01CB019E838D830FC01D
:1021600080E991E09C838B838B819C810197F1F7BF
:102170009C838B838D819E8101979E838D838D812E
:102180009E81009769F714C06F81788589859A854B
:102190000E944900DC01CB019E838D838D819E814D
:1021A0009A83898389819A810197F1F79A83898338
:1021B0008F85282F30E0CE014A96FC01E20FF31FF5
:1021C00040818F85282F30E0CE014E96FC01E20F32
:1021D000F31F90819E012E5D3F4F842F692FA9012F
:1021E0000E94070A8AA1882309F057C01AC08F8568
:1021F000282F30E0CE014A96FC01E20FF31F408108
:102200008F85282F30E0CE014E96FC01E20FF31FA0
:1022100090819E012E5D3F4F842F692FA9010E945E
:10222000070A8AA1882319F3CE0183969FAB8EAB50
:10223000EAEAF3E0F9AFE8AFF0E1FAAFE8ADF9AD03
:10224000008088AD99AD019699AF88AFEEA9FFA93E
:1022500000828EA99FA901969FAB8EAB9AAD91503B
:102260009AAFEAADEE2351F78F85282F30E08889A9
:10227000482F50E0220F331F220F331FCE0101964B
:10228000820F931F840F951FFC01B2968081EBA9EA
:10229000FCA98083F1E0FDAB2BC08F858F5F8F871A
:1022A0008F85843008F4F4CE8889282F30E0CE0161
:1022B0004296FC01E20FF31F40818889282F30E00D
:1022C000CE014696FC01E20FF31F9081842F692F07
:1022D00041E00E948A0888898F5F888B88898430D2
:1022E00008F4BDCEEBA9FCA98FEF808389898DAB63
:1022F0008DA9EA960FB6F894DEBF0FBECDBFCF9181
:10230000DF910895DF93CF9300D0CDB7DEB7CE0134
:1023100001960E94001089818F3F19F081E08A8325
:1023200002C08FEF8A838A810F900F90CF91DF9147
:102330000895DF93CF93CDB7DEB7E9970FB6F89442
:10234000DEBF0FBECDBF19AE81E061E041E00E946B
:102350009E0781E062E041E00E949E0780E061E02C
:1023600041E00E949E0780E067E041E00E949E07F6
:1023700080E066E041E00E949E0780E065E041E089
:102380000E949E0780E064E041E00E949E0780E09A
:1023900090E0ACE0B2E48DAB9EABAFABB8AF6DA953
:1023A0007EA98FA998AD20E030E04AE755E40E946D
:1023B0001F02DC01CB0189AB9AABABABBCAB69A90B
:1023C0007AA98BA99CA920E030E040E85FE30E9455
:1023D000790388232CF481E090E098AB8FA73FC06D
:1023E00069A97AA98BA99CA920E03FEF4FE757E4A0
:1023F0000E94190318164CF56DA97EA98FA998ADF6
:1024000020E030E040E251E40E941F02DC01CB01F9
:10241000BC01CD010E944900DC01CB0198AB8FA724
:102420000FC080E991E09EA78DA78DA59EA501977D
:10243000F1F79EA78DA78FA598A9019798AB8FA7B5
:102440008FA598A9009769F714C069A97AA98BA9E3
:102450009CA90E944900DC01CB0198AB8FA78FA5F6
:1024600098A99CA78BA78BA59CA50197F1F79CA782
:102470008BA781E061E040E00E948A0888E20E9428
:10248000091480E090E0A0E8BFE38FA398A7A9A774
:10249000BAA76FA178A589A59AA520E030E04AE700
:1024A00055E40E941F02DC01CB018BA39CA3ADA3CA
:1024B000BEA36BA17CA18DA19EA120E030E040E8ED
:1024C0005FE30E94790388232CF481E090E09AA3D3
:1024D00089A33FC06BA17CA18DA19EA120E03FEF0D
:1024E0004FE757E40E94190318164CF56FA178A521
:1024F00089A59AA520E030E040E251E40E941F0245
:10250000DC01CB01BC01CD010E944900DC01CB0103
:102510009AA389A30FC080E991E098A38F8F8F8D34
:1025200098A10197F1F798A38F8F89A19AA101979C
:102530009AA389A389A19AA1009769F714C06BA1F6
:102540007CA18DA19EA10E944900DC01CB019AA330
:1025500089A389A19AA19E8F8D8F8D8D9E8D0197C4
:10256000F1F79E8F8D8F81E061E040E00E948A0844
:102570008FE00E94091480E090E0A0E8BFE3898F1B
:102580009A8FAB8FBC8F698D7A8D8B8D9C8D20E05F
:1025900030E04AE755E40E941F02DC01CB018D8B3D
:1025A0009E8BAF8BB88F6D897E898F89988D20E047
:1025B00030E040E85FE30E94790388232CF481E057
:1025C00090E09C8B8B8B3FC06D897E898F89988D25
:1025D00020E03FEF4FE757E40E94190318164CF52F
:1025E000698D7A8D8B8D9C8D20E030E040E251E446
:1025F0000E941F02DC01CB01BC01CD010E944900F9
:10260000DC01CB019C8B8B8B0FC080E991E09A8B16
:10261000898B89899A890197F1F79A8B898B8B89A4
:102620009C8901979C8B8B8B8B899C89009769F780
:1026300014C06D897E898F89988D0E944900DC01C4
:10264000CB019C8B8B8B8B899C89988B8F878F85FB
:1026500098890197F1F7988B8F8781E061E040E0DE
:102660000E948A0881E00E94091480E090E0A0E0C6
:10267000B0E48B879C87AD87BE876B857C858D8515
:102680009E8520E030E04AE755E40E941F02DC010D
:10269000CB018F839887A987BA876F8178858985D1
:1026A0009A8520E030E040E85FE30E9479038823C8
:1026B0002CF481E090E09E838D833FC06F8178850C
:1026C00089859A8520E03FEF4FE757E40E94190380
:1026D00018164CF56B857C858D859E8520E030E055
:1026E00040E251E40E941F02DC01CB01BC01CD019C
:1026F0000E944900DC01CB019E838D830FC080E9DD
:1027000091E09C838B838B819C810197F1F79C8363
:102710008B838D819E8101979E838D838D819E8188
:10272000009769F714C06F81788589859A850E9422
:102730004900DC01CB019E838D838D819E819A832C
:10274000898389819A810197F1F79A83898381E04E
:1027500061E040E00E948A0886E00E94091489AD89
:10276000E9960FB6F894DEBF0FBECDBFCF91DF91D3
:102770000895DF93CF9300D0CDB7DEB78A83198257
:1027800081E061E041E00E948A088A810E94091488
:1027900089810F900F90CF91DF910895DF93CF93B0
:1027A00000D0CDB7DEB78A83198281E061E040E0D6
:1027B0000E948A088A810E94091489810F900F90D3
:1027C000CF91DF910895DF93CF9300D00F92CDB7D3
:1027D000DEB79B838A83198210C081E061E041E00B
:1027E0000E948A08EA81FB8120818A819B8101966F
:1027F0009B838A83822F0E940914EA81FB81808156
:10280000882359F789810F900F900F90CF91DF9116
:1028100008950F931F93DF93CF93CDB7DEB7C655BF
:10282000D0400FB6F894DEBF0FBECDBFFE01EA5A0E
:10283000FF4F8083FE01EB5AFF4F108280E061E082
:1028400040E00E948A0881E062E040E00E948A083D
:10285000FE01EA5AFF4F8081883209F079C1FE01FA
:10286000EA5AFF4F8081982F991F9927991F80E07E
:1028700067E0492F0E948A08FE01EA5AFF4F8081D3
:102880008295869586958370982F917080E066E09A
:10289000492F0E948A08FE01EA5AFF4F80818295E3
:1028A00086958770982F917080E065E0492F0E948F
:1028B0008A08FE01EA5AFF4F808182958F70982F17
:1028C000917080E064E0492F0E948A0880E061E016
:1028D00041E00E948A08FE01EF5AFF4F80E090E03D
:1028E000A0EAB0E480839183A283B3838E01035B6B
:1028F0001F4FFE01EF5AFF4F6081718182819381EA
:1029000020E030E04AE755E40E941F02DC01CB01E1
:10291000F80180839183A283B383FE01E35BFF4FC1
:10292000608171818281938120E030E040E85FE343
:102930000E947903882344F4FE01E55BFF4F81E0A8
:1029400090E09183808364C0FE01E35BFF4F608170
:1029500071818281938120E03FEF4FE757E40E942D
:10296000190318160CF043C0FE01EF5AFF4F6081A7
:1029700071818281938120E030E040E251E40E9445
:102980001F02DC01CB018E01055B1F4FBC01CD0195
:102990000E944900DC01CB01F801918380831FC0B4
:1029A000FE01E75BFF4F80E991E091838083FE01A8
:1029B000E75BFF4F808191810197F1F7FE01E75BB3
:1029C000FF4F91838083DE01A55BBF4FFE01E55B76
:1029D000FF4F80819181019711969C938E93FE0108
:1029E000E55BFF4F808191810097D1F627C08E0172
:1029F000055B1F4FFE01E35BFF4F608171818281A8
:102A000093810E944900DC01CB01F801918380830E
:102A1000DE01A95BBF4FFE01E55BFF4F8081918125
:102A20008D939C93FE01E95BFF4F8081918101971B
:102A3000F1F7FE01E95BFF4F9183808380E061E065
:102A400040E00E948A08FE01ED5BFF4F80E090E0CD
:102A5000A0EAB0E480839183A283B3838E01015CFA
:102A60001F4FFE01ED5BFF4F608171818281938179
:102A700020E030E04AE755E40E941F02DC01CB0170
:102A8000F80180839183A283B383FE01FF96608166
:102A900071818281938120E030E040E85FE30E9411
:102AA000790388232CF481E090E09EAF8DAF46C07F
:102AB000FE01FF96608171818281938120E03FEF6A
:102AC0004FE757E40E941903181664F5FE01ED5B09
:102AD000FF4F608171818281938120E030E040E28C
:102AE00051E40E941F02DC01CB01BC01CD010E9418
:102AF0004900DC01CB019EAF8DAF0FC080E991E0B2
:102B00009CAF8BAF8BAD9CAD0197F1F79CAF8BAFBA
:102B10008DAD9EAD01979EAF8DAF8DAD9EAD0097F3
:102B200069F716C0FE01FF966081718182819381F1
:102B30000E944900DC01CB019EAF8DAF8DAD9EADF3
:102B40009AAF89AF89AD9AAD0197F1F79AAF89AF86
:102B5000FE01EA5AFF4F8081982F991F9927991FEC
:102B600080E067E0492F0E948A08FE01EA5AFF4F81
:102B700080818295869586958370982F917080E0EC
:102B800066E0492F0E948A08FE01EA5AFF4F8081C1
:102B9000829586958770982F917080E065E0492F27
:102BA0000E948A08FE01EA5AFF4F808182958F7049
:102BB000982F917080E064E0492F0E948A0880E09D
:102BC00061E041E00E948A0880E090E0A0EAB0E481
:102BD0008DAB9EABAFABB8AF6DA97EA98FA998ADF9
:102BE00020E030E04AE755E40E941F02DC01CB01FF
:102BF00089AB9AABABABBCAB69A97AA98BA99CA9F1
:102C000020E030E040E85FE30E94790388232CF461
:102C100081E090E098AB8FA73FC069A97AA98BA902
:102C20009CA920E03FEF4FE757E40E9419031816D4
:102C30004CF56DA97EA98FA998AD20E030E040E267
:102C400051E40E941F02DC01CB01BC01CD010E94B6
:102C50004900DC01CB0198AB8FA70FC080E991E060
:102C60009EA78DA78DA59EA50197F1F79EA78DA77D
:102C70008FA598A9019798AB8FA78FA598A90097C2
:102C800069F714C069A97AA98BA99CA90E94490077
:102C9000DC01CB0198AB8FA78FA598A99CA78BA728
:102CA0008BA59CA50197F1F79CA78BA780E061E01D
:102CB00040E00E948A0880E090E0A0EAB0E48FA3A0
:102CC00098A7A9A7BAA76FA178A589A59AA520E07A
:102CD00030E04AE755E40E941F02DC01CB018BA3E0
:102CE0009CA3ADA3BEA36BA17CA18DA19EA120E05E
:102CF00030E040E85FE30E94790388232CF481E010
:102D000090E09AA389A33FC06BA17CA18DA19EA155
:102D100020E03FEF4FE757E40E94190318164CF5E7
:102D20006FA178A589A59AA520E030E040E251E4A2
:102D30000E941F02DC01CB01BC01CD010E944900B1
:102D4000DC01CB019AA389A30FC080E991E098A38D
:102D50008F8F8F8D98A10197F1F798A38F8F89A1FD
:102D60009AA101979AA389A389A19AA1009769F7CB
:102D700014C06BA17CA18DA19EA10E944900DC0121
:102D8000CB019AA389A389A19AA19E8F8D8F8D8D46
:102D90009E8D0197F1F79E8F8D8FFE01EA5AFF4FAE
:102DA0008081869586958695982F917080E067E062
:102DB000492F0E948A08FE01EA5AFF4F80818695BA
:102DC0008695982F917080E066E0492F0E948A08CE
:102DD000FE01EA5AFF4F80818695982F917080E01E
:102DE00065E0492F0E948A08FE01EA5AFF4F808160
:102DF000982F917080E064E0492F0E948A0880E05B
:102E000061E041E00E948A0880E090E0A0EAB0E43E
:102E1000898F9A8FAB8FBC8F698D7A8D8B8D9C8DAE
:102E200020E030E04AE755E40E941F02DC01CB01BC
:102E30008D8B9E8BAF8BB88F6D897E898F89988D96
:102E400020E030E040E85FE30E94790388232CF41F
:102E500081E090E09C8B8B8B3FC06D897E898F8950
:102E6000988D20E03FEF4FE757E40E9419031816B2
:102E70004CF5698D7A8D8B8D9C8D20E030E040E2A1
:102E800051E40E941F02DC01CB01BC01CD010E9474
:102E90004900DC01CB019C8B8B8B0FC080E991E05A
:102EA0009A8B898B89899A890197F1F79A8B898BFB
:102EB0008B899C8901979C8B8B8B8B899C89009734
:102EC00069F714C06D897E898F89988D0E944900A9
:102ED000DC01CB019C8B8B8B8B899C89988B8F879A
:102EE0008F8598890197F1F7988B8F8780E061E053
:102EF00040E00E948A0880E090E0A0EAB0E48B877E
:102F00009C87AD87BE876B857C858D859E8520E0FF
:102F100030E04AE755E40E941F02DC01CB018F83B9
:102F20009887A987BA876F81788589859A8520E0F7
:102F300030E040E85FE30E94790388232CF481E0CD
:102F400090E09E838D833FC06F81788589859A85C7
:102F500020E03FEF4FE757E40E94190318164CF5A5
:102F60006B857C858D859E8520E030E040E251E4D4
:102F70000E941F02DC01CB01BC01CD010E9449006F
:102F8000DC01CB019E838D830FC080E991E09C839F
:102F90008B838B819C810197F1F79C838B838D813F
:102FA0009E8101979E838D838D819E81009769F715
:102FB00014C06F81788589859A850E944900DC015B
:102FC000CB019E838D838D819E819A8389838981A4
:102FD0009A810197F1F79A838983FE01EB5AFF4F9B
:102FE0008081CA5ADF4F0FB6F894DEBF0FBECDBF47
:102FF000CF91DF911F910F910895DF93CF930F929F
:10300000CDB7DEB7CE0101960E94001089818F3FB7
:1030100019F089810E94B9130F90CF91DF91089523
:10302000DF93CF930F92CDB7DEB7CE0101960E940A
:10303000001089818F3F29F08AE2898389810E946B
:10304000B9130F90CF91DF910895DF93CF93CDB750
:10305000DEB781E061E040E00E948A0881E00E94E2
:103060000914CF91DF910895DF93CF93CDB7DEB7E9
:1030700080E062E041E00E949E0780E062E041E083
:103080000E948A0880E063E041E00E949E0780E0A1
:1030900063E041E00E948A0883E062E041E00E9430
:1030A0009E0783E062E041E00E948A0882E062E0DD
:1030B00041E00E949E0782E062E041E00E948A08AF
:1030C00083E066E041E00E949E0783E066E041E025
:1030D0000E948A08CF91DF910895DF93CF93CDB7F7
:1030E000DEB780E062E041E00E949E0780E062E09F
:1030F00040E00E948A0880E063E041E00E949E0771
:1031000080E063E040E00E948A0883E062E041E002
:103110000E949E0783E062E040E00E948A0882E00D
:1031200062E041E00E949E0782E062E040E00E948F
:103130008A0883E066E041E00E949E0783E066E043
:1031400040E00E948A08CF91DF910895DF93CF93EA
:10315000CDB7DEB783E067E041E00E949E0783E0E1
:1031600067E041E00E948A08CF91DF910895DF93E4
:10317000CF93CDB7DEB783E067E041E00E949E07C2
:1031800083E067E040E00E948A08CF91DF910895D4
:10319000DF93CF93CDB7DEB781E090E060E070E0E1
:1031A00041E050E028E030E00E945E0D0E94A50E54
:1031B0000E945F0E0E94510E0E947B0E80E690E0FE
:1031C0000E94DC0ECF91DF910895DF93CF9300D062
:1031D00000D000D0CDB7DEB79C838B836D834E8348
:1031E0008E818130D9F41A8214C00E94CD0E898359
:1031F0008AE290E00E94B30E8A81282F30E08B8112
:103200009C81FC01E20FF31F898180838A818F5F9B
:103210008A839A818D81981740F31EC08E818823FE
:10322000D9F41A8215C00E94CD0E89838981882F16
:1032300090E00E94B30E8A81282F30E08B819C8120
:10324000FC01E20FF31F898180838A818F5F8A836B
:103250009A818D81981738F326960FB6F894DEBFC1
:103260000FBECDBFCF91DF910895DF93CF9300D0F4
:10327000CDB7DEB79A83898389819A810E94DC0E5B
:103280000F900F90CF91DF910895DF93CF9300D0EF
:10329000CDB7DEB78A83198207C089E790E00E9424
:1032A000DC0E89818F5F898399818A819817A8F3C1
:1032B0000F900F90CF91DF910895DF93CF9300D0BF
:1032C00000D0CDB7DEB79B838A836C8319821BC085
:1032D000EBE2F0E08081829586958770882F90E000
:1032E000817090700097A1F3ACE2B0E08981282F43
:1032F00030E08A819B81FC01E20FF31F80818C9377
:1033000089818F5F898399818C81981708F30F9049
:103310000F900F900F90CF91DF910895DF93CF938F
:10332000CDB7DEB780E00E94050780E060E40E9430
:10333000A305CF91DF910895DF93CF930F92CDB77F
:10334000DEB70E94C9060E94620780E00E94210742
:10335000882F90E0880F991F898389810F90CF91E2
:10336000DF910895DF93CF930F92CDB7DEB70E9420
:103370009C19898389818D3138F00E94510F80E832
:1033800090E00E94E31307C08981853120F40E94F8
:103390005A0F0E9425180F90CF91DF9108958F92B8
:1033A0009F92AF92BF92CF92DF92EF92FF920F93D4
:1033B0001F93DF93CF93CDB7DEB7C654D0400FB67F
:1033C000F894DEBF0FBECDBF1E8A1B8A81E0898BB9
:1033D000188A0E94321D0E94B21980913C048130EB
:1033E00009F056C286E890E00E94DC0E8BEA90E07D
:1033F0000E94DC0E82E090E00E9445198B898823B0
:1034000009F0C7C08EEC90E00E943519CE014796B6
:1034100068E070E040E050E00E94E51881E090E054
:103420000E9445198CEE90E00E943519CE01479616
:10343000089668E070E040E050E00E94E51882E005
:1034400090E00E9445198AE091E00E943519CE0172
:10345000C796089664E070E040E050E00E94E518EE
:1034600082E090E00E94451989E391E00E943519BD
:10347000CE01479668E00E945D1981E090E00E94CD
:10348000451989E491E00E943519CE0147960896C6
:1034900068E00E945D1981E090E00E94451989E58D
:1034A00091E00E943519CE01C796089664E00E940B
:1034B0005D1982E090E00E94451983E791E00E9447
:1034C000351981EA91E00E94351982E090E00E946E
:1034D00045190E94CD0E8C8B8C89833421F08C8908
:1034E000833609F04FC00E94B21989EB91E00E9427
:1034F000DC0E8CEB93E00E9435198B898F5F8B8BF0
:1035000010923C040E947B0E00D0EDB7FEB73196BE
:103510002CEB33E081E080838B898183C9018F8824
:10352000988CA98CBA8CCB8CDC8CED8CFE8C0F8D9E
:1035300018A129A13AA14BA15CA16DA17EA10E9475
:103540000A0B0F900F9000D0EDB7FEB731962CEB21
:1035500033E010828B898183C9018F88988CA98C74
:10356000BA8CCB8CDC8CED8CFE8C0F8D18A129A134
:103570003AA14BA15CA16DA17EA10E940A0B0F9004
:103580000F9081C181E48C8B8C89813409F43ACF0E
:103590007AC18B89882309F476C10E94B2198BEE17
:1035A00091E00E94DC0E88EF91E00E94DC0E0E9408
:1035B000CD0E8C8B8C89813421F08C89813609F079
:1035C000CDC00E94B2198CEB93E00E9435198AE0BD
:1035D00092E00E943519CE01879668E070E040E0E5
:1035E00050E00E94E51881E090E00E94451982E2D7
:1035F00092E00E943519CE018796089668E070E047
:1036000041E050E00E94E51882E090E00E944519F8
:103610000E94CD0E8C8B81E0898B81E08A8B8A8918
:10362000882379F28989813009F05BC00E94B21940
:103630008AE392E00E94DC0E84E592E00E94DC0EB8
:103640008FE692E00E94DC0E8BE892E00E94DC0E96
:1036500088EA92E00E94DC0E0E94CD0E8C8B8C8951
:103660008F3419F08C898F3649F40E94770F0E94AD
:1036700025188BEC92E00E94E31324C08C898335DB
:1036800019F08C89833729F40E94800F0E94251835
:1036900019C08C898C3419F08C898C3649F40E94BD
:1036A00034180E94251885ED92E00E94E3130AC0A9
:1036B0008C89833419F08C89833621F40E946D182B
:1036C0000E9425188C89853419F08C89853621F65D
:1036D00081E090E00E94451989EB91E00E94DC0EA8
:1036E000D2C08989882309F0CEC00E94B2198EED1C
:1036F00092E00E94DC0E8AEF92E00E94DC0E87E1ED
:1037000093E00E94DC0E0E94CD0E8C8B8C898C3451
:1037100019F08C898C3649F40E9434180E942518BF
:1037200089E393E00E94E3130AC08C89833419F083
:103730008C89833621F40E946D180E9425188C898B
:10374000853419F08C898536F1F681E090E00E948D
:10375000451989EB91E00E94DC0E95C08C8982347A
:1037600021F08C89823609F08EC00E94B2198EEC4D
:1037700090E00E943519CE01479668E070E040E085
:1037800050E00E94E51881E090E00E9445198CEE1F
:1037900090E00E943519CE014796089668E070E0E7
:1037A00041E050E00E94E51882E090E00E94451957
:1037B0000E94CD0E8C8B8C898C3451F482E493E082
:1037C0000E94DC0E81E090E00E9445191A8A57C0E1
:1037D0008AE092E00E943519CE01479668E070E0D9
:1037E00040E050E00E94E51881E090E00E94451919
:1037F00082E292E00E943519CE014796089668E071
:1038000070E040E050E00E94E51882E090E00E9405
:10381000451989E391E00E943519CE01479668E089
:103820000E945D1981E090E00E94451989E491E0D1
:103830000E943519CE014796089668E00E945D19EE
:1038400081E090E00E94451983E791E00E943519DC
:1038500081EA91E00E9435190E94CD0E8C8B8C89F3
:10386000833439F489EB91E00E94DC0E81E08A8B8D
:1038700006C081E48C8B8C89813409F4A9CF8A89B4
:10388000882309F472CF10923C040E947B0EA3CDD2
:103890000E9482118F3F910509F49DCD0E94251849
:1038A00081E593E00E94E3130E94251881E693E0EE
:1038B0000E94E313CE0146960E9400108E8981304B
:1038C00009F4A7C00E94251880E793E00E94E31343
:1038D00080E090E0AAEFB4E48B879C87AD87BE8739
:1038E0006B857C858D859E8520E030E04AE755E438
:1038F0000E941F02DC01CB018F839887A987BA87BA
:103900006F81788589859A8520E030E040E85FE323
:103910000E94790388232CF481E090E09E838D83BC
:103920003FC06F81788589859A8520E03FEF4FE71A
:1039300057E40E94190318164CF56B857C858D851C
:103940009E8520E030E040E251E40E941F02DC014D
:10395000CB01BC01CD010E944900DC01CB019E835B
:103960008D830FC080E991E09C838B838B819C8148
:103970000197F1F79C838B838D819E8101979E83B4
:103980008D838D819E81009769F714C06F81788542
:1039900089859A850E944900DC01CB019E838D8335
:1039A0008D819E819A83898389819A810197F1F71C
:1039B0009A8389830E94251881E593E00E94E3138E
:1039C0000E94251881E693E00E94E313CE014696FB
:1039D0000E9400108E898230C1F08E89833089F474
:1039E00088898F5F888B81E08C8B8889833049F44C
:1039F0000E9425188BE793E00E94E3130E94A6180B
:103A0000F7CF8C89813009F45DCF8C89823009F43D
:103A100045CF81E893E00E94E3138EE893E00E9493
:103A2000E3138AE993E00E94E313CE0146960E94D5
:103A300000108E89813029F40E94341883E08C8B29
:103A40000CC08E89823029F40E946D1883E08C8B23
:103A500004C08E89833009F4BECC8C89833009F48C
:103A60001DCFB9CCDF93CF93CDB7DEB78BE49DE10B
:103A70000E94F40A0E94630F0E94890F0E948E190F
:103A80000E9499110E94A50F0E94C8180E94A50AC1
:103A9000CF91DF910895DF93CF93CDB7DEB781E06B
:103AA00080933C040E94CD0E0E94890ECF91DF913D
:103AB00008952F923F924F925F926F927F928F92D2
:103AC0009F92AF92BF92CF92DF92EF92FF920F93AD
:103AD0001F93CF93DF93CDB7DEB7CA1BDB0B0FB6B7
:103AE000F894DEBF0FBECDBF09942A883988488874
:103AF0005F846E847D848C849B84AA84B984C8840A
:103B0000DF80EE80FD800C811B81AA81B981CE0F00
:103B1000D11D0FB6F894DEBF0FBECDBFED010895E5
:103B2000FB01DC018D91019080190110D9F3990BF3
:103B30000895FB01DC0101900D920020E1F708954A
:043B4000F894FFCF27
:103B4400505245535320414E59204B455920544F10
:103B54002053544152540D0A00202020200D0A0005
:103B640041435F4F4E002A2A2A2A2A2A2A2A2A2A2D
:103B74002A2A2A2A2A2A48492A2A2A2A2A2A2A2A64
:103B84002A2A2A2A2A2A2A2A0D0A0057656C636FD0
:103B94006D6520746F20436F6E74726F6C6C696E08
:103BA4006720596F757220486F6D650D0A00506C5F
:103BB4006561736520456E7465722041646D696E3C
:103BC40020557365724E616D650D0A00506C656118
:103BD400736520456E7465722041646D696E205072
:103BE400617373576F72640D0A00456E74657220B9
:103BF400596F75722041646D696E20345F44696742
:103C040069747320456D657267656E6379205061D0
:103C14007373576F72640D0A00596F757220557370
:103C240065724E616D650D0A00596F7572205061A1
:103C34007373776F72640D0A00596F757220456D46
:103C4400657267656E63792050617373576F726430
:103C54000D0A00546F20436F6E6669726D205072B6
:103C640065737320274327202A2A50524F47524115
:103C74004D2057494C4C20455849542A2A200D0AB6
:103C840000546F204465636C696E652050726573DF
:103C94007320274427200D0A004946205520574900
:103CA400534820544F2052455354415254205448B1
:103CB400452050524F4752414D20505245535320B6
:103CC400414E59204B4559200D0A004129205349A2
:103CD400474E20494E0D0A00422920414444204EBB
:103CE400455720555345520D0A00506C6561736564
:103CF40020456E74657220557365724E616D650D55
:103D04000A00506C6561736520456E7465722050BD
:103D1400617373576F72640D0A00546F204F70659E
:103D24006E20446F6F7220507265737320274F2783
:103D3400200D0A00546F20436C6F736520446F6F2D
:103D44007220507265737320275327200D0A005484
:103D54006F204F70656E204C696768742020507224
:103D640065737320274C27200D0A00546F20436C81
:103D74006F7365204C696768742020507265737393
:103D840020274327200D0A00546F204578697420AA
:103D94005468652050726F6772616D20507265734C
:103DA400732027452720200D0A2000444F4F52201E
:103DB4004F50454E004C49474854204F4E00546FD5
:103DC400204F70656E204C6967687420207072659E
:103DD400737320274C27200D0A00546F20436C6F07
:103DE4007365204C69676874202070726573732052
:103DF400274327200D0A00546F2045786974205406
:103E040068652050726F6772616D205072657373BC
:103E140020274527200D0A20004C494748545F4F6E
:103E24004E0055736572204E6F7420466F756E6434
:103E340000454E5445525F555345525F4E414D45E2
:103E440000454E5445525F50415353574F5244001E
:103E540057524F4E475F494E464F0045524F5252BC
:103E64000031294C49474854204F4E202000322924
:103E74004C49474854204F464600332920454E4478
:103E8400000000000000000000013738392F3435ED
:0A3E940036783132332D63303D2BB8
:00000001FF
